{
  "contractName": "MarketPlace",
  "abi": [
    {
      "inputs": [],
      "payable": false,
      "stateMutability": "nonpayable",
      "type": "constructor"
    },
    {
      "anonymous": false,
      "inputs": [
        {
          "indexed": false,
          "internalType": "uint256",
          "name": "id",
          "type": "uint256"
        }
      ],
      "name": "newUserRegistered",
      "type": "event"
    },
    {
      "anonymous": false,
      "inputs": [
        {
          "indexed": false,
          "internalType": "uint256",
          "name": "id",
          "type": "uint256"
        }
      ],
      "name": "userUpdateEvent",
      "type": "event"
    },
    {
      "constant": true,
      "inputs": [],
      "name": "Contract_owner",
      "outputs": [
        {
          "internalType": "address",
          "name": "",
          "type": "address"
        }
      ],
      "payable": false,
      "stateMutability": "view",
      "type": "function"
    },
    {
      "constant": true,
      "inputs": [],
      "name": "balance",
      "outputs": [
        {
          "internalType": "uint256",
          "name": "",
          "type": "uint256"
        }
      ],
      "payable": false,
      "stateMutability": "view",
      "type": "function"
    },
    {
      "constant": true,
      "inputs": [
        {
          "internalType": "uint256",
          "name": "",
          "type": "uint256"
        }
      ],
      "name": "orders",
      "outputs": [
        {
          "internalType": "address",
          "name": "product",
          "type": "address"
        },
        {
          "internalType": "address",
          "name": "costumer",
          "type": "address"
        },
        {
          "internalType": "address",
          "name": "supplier",
          "type": "address"
        },
        {
          "internalType": "bytes32",
          "name": "product_name",
          "type": "bytes32"
        },
        {
          "internalType": "bytes32",
          "name": "costumer_category",
          "type": "bytes32"
        },
        {
          "internalType": "bytes32",
          "name": "supplier_category",
          "type": "bytes32"
        },
        {
          "internalType": "uint256",
          "name": "amount",
          "type": "uint256"
        },
        {
          "internalType": "uint256",
          "name": "value",
          "type": "uint256"
        },
        {
          "internalType": "uint256",
          "name": "timestamp",
          "type": "uint256"
        },
        {
          "internalType": "uint256",
          "name": "consulted",
          "type": "uint256"
        }
      ],
      "payable": false,
      "stateMutability": "view",
      "type": "function"
    },
    {
      "constant": true,
      "inputs": [
        {
          "internalType": "uint256",
          "name": "",
          "type": "uint256"
        }
      ],
      "name": "users",
      "outputs": [
        {
          "internalType": "string",
          "name": "name",
          "type": "string"
        },
        {
          "internalType": "bytes32",
          "name": "status",
          "type": "bytes32"
        },
        {
          "internalType": "address",
          "name": "walletAddress",
          "type": "address"
        },
        {
          "internalType": "uint256",
          "name": "createdAt",
          "type": "uint256"
        },
        {
          "internalType": "uint256",
          "name": "updatedAt",
          "type": "uint256"
        },
        {
          "internalType": "uint256",
          "name": "consulted",
          "type": "uint256"
        },
        {
          "internalType": "uint256",
          "name": "paid",
          "type": "uint256"
        }
      ],
      "payable": false,
      "stateMutability": "view",
      "type": "function"
    },
    {
      "constant": true,
      "inputs": [
        {
          "internalType": "address",
          "name": "",
          "type": "address"
        }
      ],
      "name": "usersIds",
      "outputs": [
        {
          "internalType": "uint256",
          "name": "",
          "type": "uint256"
        }
      ],
      "payable": false,
      "stateMutability": "view",
      "type": "function"
    },
    {
      "constant": false,
      "inputs": [],
      "name": "kill",
      "outputs": [],
      "payable": false,
      "stateMutability": "nonpayable",
      "type": "function"
    },
    {
      "constant": true,
      "inputs": [
        {
          "internalType": "string",
          "name": "source",
          "type": "string"
        }
      ],
      "name": "stringToBytes32",
      "outputs": [
        {
          "internalType": "bytes32",
          "name": "result",
          "type": "bytes32"
        }
      ],
      "payable": false,
      "stateMutability": "pure",
      "type": "function"
    },
    {
      "constant": false,
      "inputs": [
        {
          "internalType": "string",
          "name": "_userName",
          "type": "string"
        },
        {
          "internalType": "bytes32",
          "name": "_status",
          "type": "bytes32"
        }
      ],
      "name": "registerUser",
      "outputs": [
        {
          "internalType": "uint256",
          "name": "",
          "type": "uint256"
        }
      ],
      "payable": false,
      "stateMutability": "nonpayable",
      "type": "function"
    },
    {
      "constant": false,
      "inputs": [
        {
          "internalType": "string",
          "name": "_newUserName",
          "type": "string"
        },
        {
          "internalType": "bytes32",
          "name": "_newStatus",
          "type": "bytes32"
        }
      ],
      "name": "updateUser",
      "outputs": [
        {
          "internalType": "uint256",
          "name": "",
          "type": "uint256"
        }
      ],
      "payable": false,
      "stateMutability": "nonpayable",
      "type": "function"
    },
    {
      "constant": true,
      "inputs": [
        {
          "internalType": "uint256",
          "name": "_id",
          "type": "uint256"
        }
      ],
      "name": "getUserById",
      "outputs": [
        {
          "internalType": "uint256",
          "name": "",
          "type": "uint256"
        },
        {
          "internalType": "string",
          "name": "",
          "type": "string"
        },
        {
          "internalType": "bytes32",
          "name": "",
          "type": "bytes32"
        },
        {
          "internalType": "address",
          "name": "",
          "type": "address"
        },
        {
          "internalType": "uint256",
          "name": "",
          "type": "uint256"
        },
        {
          "internalType": "uint256",
          "name": "",
          "type": "uint256"
        },
        {
          "internalType": "uint256",
          "name": "",
          "type": "uint256"
        },
        {
          "internalType": "uint256",
          "name": "",
          "type": "uint256"
        }
      ],
      "payable": false,
      "stateMutability": "view",
      "type": "function"
    },
    {
      "constant": true,
      "inputs": [
        {
          "internalType": "uint256",
          "name": "_id",
          "type": "uint256"
        }
      ],
      "name": "getOrderById",
      "outputs": [
        {
          "internalType": "uint256",
          "name": "",
          "type": "uint256"
        },
        {
          "internalType": "bytes32",
          "name": "",
          "type": "bytes32"
        },
        {
          "internalType": "bytes32",
          "name": "",
          "type": "bytes32"
        },
        {
          "internalType": "bytes32",
          "name": "",
          "type": "bytes32"
        },
        {
          "internalType": "uint256",
          "name": "",
          "type": "uint256"
        },
        {
          "internalType": "uint256",
          "name": "",
          "type": "uint256"
        },
        {
          "internalType": "uint256",
          "name": "",
          "type": "uint256"
        }
      ],
      "payable": false,
      "stateMutability": "view",
      "type": "function"
    },
    {
      "constant": true,
      "inputs": [],
      "name": "getOwnProfile",
      "outputs": [
        {
          "internalType": "uint256",
          "name": "",
          "type": "uint256"
        },
        {
          "internalType": "string",
          "name": "",
          "type": "string"
        },
        {
          "internalType": "bytes32",
          "name": "",
          "type": "bytes32"
        },
        {
          "internalType": "address",
          "name": "",
          "type": "address"
        },
        {
          "internalType": "uint256",
          "name": "",
          "type": "uint256"
        },
        {
          "internalType": "uint256",
          "name": "",
          "type": "uint256"
        },
        {
          "internalType": "uint256",
          "name": "",
          "type": "uint256"
        },
        {
          "internalType": "uint256",
          "name": "",
          "type": "uint256"
        }
      ],
      "payable": false,
      "stateMutability": "view",
      "type": "function"
    },
    {
      "constant": true,
      "inputs": [],
      "name": "isRegistered",
      "outputs": [
        {
          "internalType": "bool",
          "name": "",
          "type": "bool"
        }
      ],
      "payable": false,
      "stateMutability": "view",
      "type": "function"
    },
    {
      "constant": true,
      "inputs": [],
      "name": "totalUsers",
      "outputs": [
        {
          "internalType": "uint256",
          "name": "",
          "type": "uint256"
        }
      ],
      "payable": false,
      "stateMutability": "view",
      "type": "function"
    },
    {
      "constant": true,
      "inputs": [],
      "name": "totalOrders",
      "outputs": [
        {
          "internalType": "uint256",
          "name": "",
          "type": "uint256"
        }
      ],
      "payable": false,
      "stateMutability": "view",
      "type": "function"
    },
    {
      "constant": true,
      "inputs": [],
      "name": "totalConsulted",
      "outputs": [
        {
          "internalType": "uint256",
          "name": "",
          "type": "uint256"
        }
      ],
      "payable": false,
      "stateMutability": "view",
      "type": "function"
    },
    {
      "constant": true,
      "inputs": [],
      "name": "totalPaid",
      "outputs": [
        {
          "internalType": "uint256",
          "name": "",
          "type": "uint256"
        }
      ],
      "payable": false,
      "stateMutability": "view",
      "type": "function"
    },
    {
      "constant": false,
      "inputs": [
        {
          "internalType": "address",
          "name": "w_product",
          "type": "address"
        },
        {
          "internalType": "address",
          "name": "w_costumer",
          "type": "address"
        },
        {
          "internalType": "uint256",
          "name": "amount",
          "type": "uint256"
        },
        {
          "internalType": "uint256",
          "name": "value",
          "type": "uint256"
        }
      ],
      "name": "placeOrderWallet",
      "outputs": [],
      "payable": false,
      "stateMutability": "nonpayable",
      "type": "function"
    },
    {
      "constant": false,
      "inputs": [
        {
          "internalType": "uint256",
          "name": "id_product",
          "type": "uint256"
        },
        {
          "internalType": "uint256",
          "name": "id_costumer",
          "type": "uint256"
        },
        {
          "internalType": "uint256",
          "name": "amount",
          "type": "uint256"
        },
        {
          "internalType": "uint256",
          "name": "value",
          "type": "uint256"
        }
      ],
      "name": "placeOrderID",
      "outputs": [],
      "payable": false,
      "stateMutability": "nonpayable",
      "type": "function"
    },
    {
      "constant": true,
      "inputs": [
        {
          "internalType": "bytes32",
          "name": "_product_name",
          "type": "bytes32"
        },
        {
          "internalType": "bytes32",
          "name": "_costumer_category",
          "type": "bytes32"
        },
        {
          "internalType": "uint256",
          "name": "_begin",
          "type": "uint256"
        },
        {
          "internalType": "uint256",
          "name": "_end",
          "type": "uint256"
        }
      ],
      "name": "reduceOrdersCheck",
      "outputs": [
        {
          "internalType": "uint256",
          "name": "",
          "type": "uint256"
        }
      ],
      "payable": false,
      "stateMutability": "view",
      "type": "function"
    },
    {
      "constant": false,
      "inputs": [
        {
          "internalType": "bytes32",
          "name": "_product_name",
          "type": "bytes32"
        },
        {
          "internalType": "bytes32",
          "name": "_costumer_category",
          "type": "bytes32"
        },
        {
          "internalType": "uint256",
          "name": "_begin",
          "type": "uint256"
        },
        {
          "internalType": "uint256",
          "name": "_end",
          "type": "uint256"
        }
      ],
      "name": "reduceOrders",
      "outputs": [
        {
          "internalType": "int256",
          "name": "",
          "type": "int256"
        }
      ],
      "payable": true,
      "stateMutability": "payable",
      "type": "function"
    },
    {
      "constant": false,
      "inputs": [],
      "name": "payDay",
      "outputs": [],
      "payable": true,
      "stateMutability": "payable",
      "type": "function"
    }
  ],
  "bytecode": "0x608060405260006001553480156200001657600080fd5b50336000806101000a81548173ffffffffffffffffffffffffffffffffffffffff021916908373ffffffffffffffffffffffffffffffffffffffff160217905550620000c060006040518060400160405280600a81526020017f64756d6d795f75736572000000000000000000000000000000000000000000008152507f64756d6d795f75736572000000000000000000000000000000000000000000006200036c60201b60201c565b5062000129336040518060400160405280600e81526020017f436f6e74726163745f6f776e65720000000000000000000000000000000000008152507f436f6e74726163745f6f776e65720000000000000000000000000000000000006200036c60201b60201c565b506003604051806101400160405280600073ffffffffffffffffffffffffffffffffffffffff168152602001600073ffffffffffffffffffffffffffffffffffffffff168152602001600073ffffffffffffffffffffffffffffffffffffffff1681526020017f64756d6d795f6f7264657200000000000000000000000000000000000000000081526020017f64756d6d795f6f7264657200000000000000000000000000000000000000000081526020017f64756d6d795f6f72646572000000000000000000000000000000000000000000815260200160018152602001600281526020016003815260200160008152509080600181540180825580915050906001820390600052602060002090600a02016000909192909190915060008201518160000160006101000a81548173ffffffffffffffffffffffffffffffffffffffff021916908373ffffffffffffffffffffffffffffffffffffffff16021790555060208201518160010160006101000a81548173ffffffffffffffffffffffffffffffffffffffff021916908373ffffffffffffffffffffffffffffffffffffffff16021790555060408201518160020160006101000a81548173ffffffffffffffffffffffffffffffffffffffff021916908373ffffffffffffffffffffffffffffffffffffffff160217905550606082015181600301556080820151816004015560a0820151816005015560c0820151816006015560e08201518160070155610100820151816008015561012082015181600901555050506200071a565b600080600460008673ffffffffffffffffffffffffffffffffffffffff1673ffffffffffffffffffffffffffffffffffffffff16815260200190815260200160002054905060008114620003bf57600080fd5b600280549050600460008773ffffffffffffffffffffffffffffffffffffffff1673ffffffffffffffffffffffffffffffffffffffff1681526020019081526020016000208190555060006002805480919060010162000420919062000567565b90506040518060e001604052808681526020018581526020018773ffffffffffffffffffffffffffffffffffffffff168152602001428152602001428152602001600081526020016000815250600282815481106200047b57fe5b90600052602060002090600702016000820151816000019080519060200190620004a79291906200059c565b506020820151816001015560408201518160020160006101000a81548173ffffffffffffffffffffffffffffffffffffffff021916908373ffffffffffffffffffffffffffffffffffffffff160217905550606082015181600301556080820151816004015560a0820151816005015560c082015181600601559050507f2456c02735fb44894660d2af194ca5261385d8ee03675e1d75b0da1300a764cd816040518082815260200191505060405180910390a180925050509392505050565b815481835581811115620005975760070281600702836000526020600020918201910162000596919062000623565b5b505050565b828054600181600116156101000203166002900490600052602060002090601f016020900481019282601f10620005df57805160ff191683800117855562000610565b8280016001018555821562000610579182015b828111156200060f578251825591602001919060010190620005f2565b5b5090506200061f9190620006a6565b5090565b620006a391905b808211156200069f5760008082016000620006469190620006ce565b60018201600090556002820160006101000a81549073ffffffffffffffffffffffffffffffffffffffff02191690556003820160009055600482016000905560058201600090556006820160009055506007016200062a565b5090565b90565b620006cb91905b80821115620006c7576000816000905550600101620006ad565b5090565b90565b50805460018160011615610100020316600290046000825580601f10620006f6575062000717565b601f016020900490600052602060002090810190620007169190620006a6565b5b50565b6127b3806200072a6000396000f3fe6080604052600436106101355760003560e01c8063789b2e6c116100ab578063b8e21a5b1161006f578063b8e21a5b14610926578063bff1f9e11461098b578063cfb51928146109b6578063e7b0f66614610a92578063ed60495014610abd578063fd1b515814610b1657610135565b8063789b2e6c146106995780637b7a3965146106a35780638f39471514610703578063a85c38ef146107e9578063b69ef8a8146108fb57610135565b806341c0e1b5116100fd57806341c0e1b51461032057806342b50a7a14610337578063450324d9146103b05780634d180e9e1461043557806368ae5563146104a25780636ed6da9e1461058857610135565b80631d8344091461013a5780631f21d2ba1461016557806322366844146101bc5780632d4e97cd146101eb578063365b98b214610216575b600080fd5b34801561014657600080fd5b5061014f610c03565b6040518082815260200191505060405180910390f35b34801561017157600080fd5b5061017a610c13565b604051808273ffffffffffffffffffffffffffffffffffffffff1673ffffffffffffffffffffffffffffffffffffffff16815260200191505060405180910390f35b3480156101c857600080fd5b506101d1610c38565b604051808215151515815260200191505060405180910390f35b3480156101f757600080fd5b50610200610c81565b6040518082815260200191505060405180910390f35b34801561022257600080fd5b5061024f6004803603602081101561023957600080fd5b8101908080359060200190929190505050610d07565b60405180806020018881526020018773ffffffffffffffffffffffffffffffffffffffff1673ffffffffffffffffffffffffffffffffffffffff168152602001868152602001858152602001848152602001838152602001828103825289818151815260200191508051906020019080838360005b838110156102df5780820151818401526020810190506102c4565b50505050905090810190601f16801561030c5780820380516001836020036101000a031916815260200191505b509850505050505050505060405180910390f35b34801561032c57600080fd5b50610335610e0e565b005b34801561034357600080fd5b506103706004803603602081101561035a57600080fd5b8101908080359060200190929190505050610e80565b6040518088815260200187815260200186815260200185815260200184815260200183815260200182815260200197505050505050505060405180910390f35b3480156103bc57600080fd5b50610433600480360360808110156103d357600080fd5b81019080803573ffffffffffffffffffffffffffffffffffffffff169060200190929190803573ffffffffffffffffffffffffffffffffffffffff1690602001909291908035906020019092919080359060200190929190505050611095565b005b34801561044157600080fd5b5061048c6004803603608081101561045857600080fd5b810190808035906020019092919080359060200190929190803590602001909291908035906020019092919050505061139a565b6040518082815260200191505060405180910390f35b3480156104ae57600080fd5b50610572600480360360408110156104c557600080fd5b81019080803590602001906401000000008111156104e257600080fd5b8201836020820111156104f457600080fd5b8035906020019184600183028401116401000000008311171561051657600080fd5b91908080601f016020809104026020016040519081016040528093929190818152602001838380828437600081840152601f19601f820116905080830192505050505050509192919290803590602001909291905050506114e4565b6040518082815260200191505060405180910390f35b34801561059457600080fd5b506105c1600480360360208110156105ab57600080fd5b81019080803590602001909291905050506114f9565b60405180898152602001806020018881526020018773ffffffffffffffffffffffffffffffffffffffff1673ffffffffffffffffffffffffffffffffffffffff168152602001868152602001858152602001848152602001838152602001828103825289818151815260200191508051906020019080838360005b8381101561065757808201518184015260208101905061063c565b50505050905090810190601f1680156106845780820380516001836020036101000a031916815260200191505b50995050505050505050505060405180910390f35b6106a1611751565b005b6106ed600480360360808110156106b957600080fd5b8101908080359060200190929190803590602001909291908035906020019092919080359060200190929190505050611894565b6040518082815260200191505060405180910390f35b34801561070f57600080fd5b506107d36004803603604081101561072657600080fd5b810190808035906020019064010000000081111561074357600080fd5b82018360208201111561075557600080fd5b8035906020019184600183028401116401000000008311171561077757600080fd5b91908080601f016020809104026020016040519081016040528093929190818152602001838380828437600081840152601f19601f82011690508083019250505050505050919291929080359060200190929190505050611c44565b6040518082815260200191505060405180910390f35b3480156107f557600080fd5b506108226004803603602081101561080c57600080fd5b8101908080359060200190929190505050611d27565b604051808b73ffffffffffffffffffffffffffffffffffffffff1673ffffffffffffffffffffffffffffffffffffffff1681526020018a73ffffffffffffffffffffffffffffffffffffffff1673ffffffffffffffffffffffffffffffffffffffff1681526020018973ffffffffffffffffffffffffffffffffffffffff1673ffffffffffffffffffffffffffffffffffffffff1681526020018881526020018781526020018681526020018581526020018481526020018381526020018281526020019a505050505050505050505060405180910390f35b34801561090757600080fd5b50610910611de8565b6040518082815260200191505060405180910390f35b34801561093257600080fd5b506109756004803603602081101561094957600080fd5b81019080803573ffffffffffffffffffffffffffffffffffffffff169060200190929190505050611dee565b6040518082815260200191505060405180910390f35b34801561099757600080fd5b506109a0611e06565b6040518082815260200191505060405180910390f35b3480156109c257600080fd5b50610a7c600480360360208110156109d957600080fd5b81019080803590602001906401000000008111156109f657600080fd5b820183602082011115610a0857600080fd5b80359060200191846001830284011164010000000083111715610a2a57600080fd5b91908080601f016020809104026020016040519081016040528093929190818152602001838380828437600081840152601f19601f820116905080830192505050505050509192919290505050611e16565b6040518082815260200191505060405180910390f35b348015610a9e57600080fd5b50610aa7611e41565b6040518082815260200191505060405180910390f35b348015610ac957600080fd5b50610b1460048036036080811015610ae057600080fd5b8101908080359060200190929190803590602001909291908035906020019092919080359060200190929190505050611ec7565b005b348015610b2257600080fd5b50610b2b6121f2565b60405180898152602001806020018881526020018773ffffffffffffffffffffffffffffffffffffffff1673ffffffffffffffffffffffffffffffffffffffff168152602001868152602001858152602001848152602001838152602001828103825289818151815260200191508051906020019080838360005b83811015610bc1578082015181840152602081019050610ba6565b50505050905090810190601f168015610bee5780820380516001836020036101000a031916815260200191505b50995050505050505050505060405180910390f35b6000600160038054905003905090565b6000809054906101000a900473ffffffffffffffffffffffffffffffffffffffff1681565b600080600460003373ffffffffffffffffffffffffffffffffffffffff1673ffffffffffffffffffffffffffffffffffffffff1681526020019081526020016000205411905090565b60006002600460008060009054906101000a900473ffffffffffffffffffffffffffffffffffffffff1673ffffffffffffffffffffffffffffffffffffffff1673ffffffffffffffffffffffffffffffffffffffff1681526020019081526020016000205481548110610cf057fe5b906000526020600020906007020160050154905090565b60028181548110610d1457fe5b9060005260206000209060070201600091509050806000018054600181600116156101000203166002900480601f016020809104026020016040519081016040528092919081815260200182805460018160011615610100020316600290048015610dc05780601f10610d9557610100808354040283529160200191610dc0565b820191906000526020600020905b815481529060010190602001808311610da357829003601f168201915b5050505050908060010154908060020160009054906101000a900473ffffffffffffffffffffffffffffffffffffffff16908060030154908060040154908060050154908060060154905087565b6000809054906101000a900473ffffffffffffffffffffffffffffffffffffffff1673ffffffffffffffffffffffffffffffffffffffff163373ffffffffffffffffffffffffffffffffffffffff1614610e6757600080fd5b3373ffffffffffffffffffffffffffffffffffffffff16ff5b600080600080600080600080881180610e9e57506003805490508811155b610ea757600080fd5b60606040518060400160405280600481526020017f75736572000000000000000000000000000000000000000000000000000000008152509050610ee961246d565b60038a81548110610ef657fe5b90600052602060002090600a0201604051806101400160405290816000820160009054906101000a900473ffffffffffffffffffffffffffffffffffffffff1673ffffffffffffffffffffffffffffffffffffffff1673ffffffffffffffffffffffffffffffffffffffff1681526020016001820160009054906101000a900473ffffffffffffffffffffffffffffffffffffffff1673ffffffffffffffffffffffffffffffffffffffff1673ffffffffffffffffffffffffffffffffffffffff1681526020016002820160009054906101000a900473ffffffffffffffffffffffffffffffffffffffff1673ffffffffffffffffffffffffffffffffffffffff1673ffffffffffffffffffffffffffffffffffffffff168152602001600382015481526020016004820154815260200160058201548152602001600682015481526020016007820154815260200160088201548152602001600982015481525050905089816060015182608001518360a001518460c001518560e0015186610100015198509850985098509850985098505050919395979092949650565b60006002600460008773ffffffffffffffffffffffffffffffffffffffff1673ffffffffffffffffffffffffffffffffffffffff16815260200190815260200160002054815481106110e357fe5b906000526020600020906007020160010154905060006002600460008773ffffffffffffffffffffffffffffffffffffffff1673ffffffffffffffffffffffffffffffffffffffff168152602001908152602001600020548154811061114557fe5b906000526020600020906007020160010154905060006002600460003373ffffffffffffffffffffffffffffffffffffffff1673ffffffffffffffffffffffffffffffffffffffff16815260200190815260200160002054815481106111a757fe5b906000526020600020906007020160010154905060036040518061014001604052808973ffffffffffffffffffffffffffffffffffffffff1681526020018873ffffffffffffffffffffffffffffffffffffffff1681526020013373ffffffffffffffffffffffffffffffffffffffff16815260200185815260200184815260200183815260200187815260200186815260200142815260200160008152509080600181540180825580915050906001820390600052602060002090600a02016000909192909190915060008201518160000160006101000a81548173ffffffffffffffffffffffffffffffffffffffff021916908373ffffffffffffffffffffffffffffffffffffffff16021790555060208201518160010160006101000a81548173ffffffffffffffffffffffffffffffffffffffff021916908373ffffffffffffffffffffffffffffffffffffffff16021790555060408201518160020160006101000a81548173ffffffffffffffffffffffffffffffffffffffff021916908373ffffffffffffffffffffffffffffffffffffffff160217905550606082015181600301556080820151816004015560a0820151816005015560c0820151816006015560e082015181600701556101008201518160080155610120820151816009015550505050505050505050565b6000806000905060006001905060006001905060006001905060006001905060006001905060008090505b6113cd610c03565b8110156114d2576000602060ff161115611405578b600382815481106113ef57fe5b90600052602060002090600a0201600301541495505b6000602060ff161115611436578a6003828154811061142057fe5b90600052602060002090600a0201600401541494505b60008a111561146457896003828154811061144d57fe5b90600052602060002090600a020160080154101592505b600089111561149257886003828154811061147b57fe5b90600052602060002090600a020160080154111591505b85801561149c5750845b80156114a55750835b80156114ae5750825b80156114b75750815b156114c55786806001019750505b80806001019150506113c5565b50859650505050505050949350505050565b60006114f1338484612278565b905092915050565b60006060600080600080600080600089118061151a57506002805490508911155b61152357600080fd5b60606040518060400160405280600481526020017f7573657200000000000000000000000000000000000000000000000000000000815250905061156561250b565b60028b8154811061157257fe5b90600052602060002090600702016040518060e0016040529081600082018054600181600116156101000203166002900480601f0160208091040260200160405190810160405280929190818152602001828054600181600116156101000203166002900480156116245780601f106115f957610100808354040283529160200191611624565b820191906000526020600020905b81548152906001019060200180831161160757829003601f168201915b50505050508152602001600182015481526020016002820160009054906101000a900473ffffffffffffffffffffffffffffffffffffffff1673ffffffffffffffffffffffffffffffffffffffff1673ffffffffffffffffffffffffffffffffffffffff16815260200160038201548152602001600482015481526020016005820154815260200160068201548152505090506000809054906101000a900473ffffffffffffffffffffffffffffffffffffffff1673ffffffffffffffffffffffffffffffffffffffff163373ffffffffffffffffffffffffffffffffffffffff16141561171457806000015191505b8a8282602001518360400151846060015185608001518660a001518760c00151995099509950995099509950995099505050919395975091939597565b6000809054906101000a900473ffffffffffffffffffffffffffffffffffffffff1673ffffffffffffffffffffffffffffffffffffffff163373ffffffffffffffffffffffffffffffffffffffff16146117aa57600080fd5b6117b2610c81565b47116117bd57600080fd5b60008090506000600190505b6117d1611e06565b81101561189057600281815481106117e557fe5b90600052602060002090600702016005015491506002818154811061180657fe5b906000526020600020906007020160020160009054906101000a900473ffffffffffffffffffffffffffffffffffffffff1673ffffffffffffffffffffffffffffffffffffffff16600147905050506002818154811061186257fe5b90600052602060002090600702016006016000815480929190600101919050555080806001019150506117c9565b5050565b6000346001600082825401925050819055506000809050600080905060006001905060006001905060006001905060006001905060006001905060008090505b6118dc610c03565b811015611c3157600381815481106118f057fe5b90600052602060002090600a0201600601546003828154811061190f57fe5b90600052602060002090600a0201600701540296506000602060ff161115611955578c6003828154811061193f57fe5b90600052602060002090600a0201600301541495505b6000602060ff161115611986578b6003828154811061197057fe5b90600052602060002090600a0201600401541494505b60008b11156119b4578a6003828154811061199d57fe5b90600052602060002090600a020160080154101592505b60008a11156119e25789600382815481106119cb57fe5b90600052602060002090600a020160080154111591505b8580156119ec5750845b80156119f55750835b80156119fe5750825b8015611a075750815b15611c245760038181548110611a1957fe5b90600052602060002090600a02016009016000815480929190600101919050555060026004600060038481548110611a4d57fe5b90600052602060002090600a020160010160009054906101000a900473ffffffffffffffffffffffffffffffffffffffff1673ffffffffffffffffffffffffffffffffffffffff1673ffffffffffffffffffffffffffffffffffffffff1681526020019081526020016000205481548110611ac457fe5b90600052602060002090600702016005016000815480929190600101919050555060026004600060038481548110611af857fe5b90600052602060002090600a020160020160009054906101000a900473ffffffffffffffffffffffffffffffffffffffff1673ffffffffffffffffffffffffffffffffffffffff1673ffffffffffffffffffffffffffffffffffffffff1681526020019081526020016000205481548110611b6f57fe5b9060005260206000209060070201600501600081548092919060010191905055506002600460008060009054906101000a900473ffffffffffffffffffffffffffffffffffffffff1673ffffffffffffffffffffffffffffffffffffffff1673ffffffffffffffffffffffffffffffffffffffff1681526020019081526020016000205481548110611bfd57fe5b90600052602060002090600702016005016000815480929190600101919050555086880197505b80806001019150506118d4565b5086975050505050505050949350505050565b6000611c4e610c38565b611c5757600080fd5b6000600460003373ffffffffffffffffffffffffffffffffffffffff1673ffffffffffffffffffffffffffffffffffffffff168152602001908152602001600020549050600060028281548110611caa57fe5b9060005260206000209060070201905084816000019080519060200190611cd2929190612561565b508381600101819055504281600401819055507f179dda4b314caed68129a8b8bbd77c7a4fb092c2d9fb3de452a4f8e4839dc876826040518082815260200191505060405180910390a1819250505092915050565b60038181548110611d3457fe5b90600052602060002090600a02016000915090508060000160009054906101000a900473ffffffffffffffffffffffffffffffffffffffff16908060010160009054906101000a900473ffffffffffffffffffffffffffffffffffffffff16908060020160009054906101000a900473ffffffffffffffffffffffffffffffffffffffff1690806003015490806004015490806005015490806006015490806007015490806008015490806009015490508a565b60015481565b60046020528060005260406000206000915090505481565b6000600160028054905003905090565b60006060829050600081511415611e33576000801b915050611e3c565b60208301519150505b919050565b60006002600460008060009054906101000a900473ffffffffffffffffffffffffffffffffffffffff1673ffffffffffffffffffffffffffffffffffffffff1673ffffffffffffffffffffffffffffffffffffffff1681526020019081526020016000205481548110611eb057fe5b906000526020600020906007020160060154905090565b611ecf611e06565b841115611edb57600080fd5b611ee3611e06565b831115611eef57600080fd5b600060028581548110611efe57fe5b9060005260206000209060070201600101549050600060028581548110611f2157fe5b906000526020600020906007020160010154905060006002600460003373ffffffffffffffffffffffffffffffffffffffff1673ffffffffffffffffffffffffffffffffffffffff1681526020019081526020016000205481548110611f8357fe5b9060005260206000209060070201600101549050600360405180610140016040528060028a81548110611fb257fe5b906000526020600020906007020160020160009054906101000a900473ffffffffffffffffffffffffffffffffffffffff1673ffffffffffffffffffffffffffffffffffffffff1681526020016002898154811061200c57fe5b906000526020600020906007020160020160009054906101000a900473ffffffffffffffffffffffffffffffffffffffff1673ffffffffffffffffffffffffffffffffffffffff1681526020013373ffffffffffffffffffffffffffffffffffffffff16815260200185815260200184815260200183815260200187815260200186815260200142815260200160008152509080600181540180825580915050906001820390600052602060002090600a02016000909192909190915060008201518160000160006101000a81548173ffffffffffffffffffffffffffffffffffffffff021916908373ffffffffffffffffffffffffffffffffffffffff16021790555060208201518160010160006101000a81548173ffffffffffffffffffffffffffffffffffffffff021916908373ffffffffffffffffffffffffffffffffffffffff16021790555060408201518160020160006101000a81548173ffffffffffffffffffffffffffffffffffffffff021916908373ffffffffffffffffffffffffffffffffffffffff160217905550606082015181600301556080820151816004015560a0820151816005015560c0820151816006015560e082015181600701556101008201518160080155610120820151816009015550505050505050505050565b60006060600080600080600080612207610c38565b61221057600080fd5b6000600460003373ffffffffffffffffffffffffffffffffffffffff1673ffffffffffffffffffffffffffffffffffffffff16815260200190815260200160002054905061225d816114f9565b98509850985098509850985098509850509091929394959697565b600080600460008673ffffffffffffffffffffffffffffffffffffffff1673ffffffffffffffffffffffffffffffffffffffff168152602001908152602001600020549050600081146122ca57600080fd5b600280549050600460008773ffffffffffffffffffffffffffffffffffffffff1673ffffffffffffffffffffffffffffffffffffffff1681526020019081526020016000208190555060006002805480919060010161232991906125e1565b90506040518060e001604052808681526020018581526020018773ffffffffffffffffffffffffffffffffffffffff1681526020014281526020014281526020016000815260200160008152506002828154811061238357fe5b906000526020600020906007020160008201518160000190805190602001906123ad929190612613565b506020820151816001015560408201518160020160006101000a81548173ffffffffffffffffffffffffffffffffffffffff021916908373ffffffffffffffffffffffffffffffffffffffff160217905550606082015181600301556080820151816004015560a0820151816005015560c082015181600601559050507f2456c02735fb44894660d2af194ca5261385d8ee03675e1d75b0da1300a764cd816040518082815260200191505060405180910390a180925050509392505050565b604051806101400160405280600073ffffffffffffffffffffffffffffffffffffffff168152602001600073ffffffffffffffffffffffffffffffffffffffff168152602001600073ffffffffffffffffffffffffffffffffffffffff168152602001600080191681526020016000801916815260200160008019168152602001600081526020016000815260200160008152602001600081525090565b6040518060e001604052806060815260200160008019168152602001600073ffffffffffffffffffffffffffffffffffffffff168152602001600081526020016000815260200160008152602001600081525090565b828054600181600116156101000203166002900490600052602060002090601f016020900481019282601f106125a257805160ff19168380011785556125d0565b828001600101855582156125d0579182015b828111156125cf5782518255916020019190600101906125b4565b5b5090506125dd9190612693565b5090565b81548183558181111561260e5760070281600702836000526020600020918201910161260d91906126b8565b5b505050565b828054600181600116156101000203166002900490600052602060002090601f016020900481019282601f1061265457805160ff1916838001178555612682565b82800160010185558215612682579182015b82811115612681578251825591602001919060010190612666565b5b50905061268f9190612693565b5090565b6126b591905b808211156126b1576000816000905550600101612699565b5090565b90565b61273391905b8082111561272f57600080820160006126d79190612736565b60018201600090556002820160006101000a81549073ffffffffffffffffffffffffffffffffffffffff02191690556003820160009055600482016000905560058201600090556006820160009055506007016126be565b5090565b90565b50805460018160011615610100020316600290046000825580601f1061275c575061277b565b601f01602090049060005260206000209081019061277a9190612693565b5b5056fea265627a7a72315820883e5701ccd5754255f8788e8ad2d07efa8ed7a160485466a59020d029e91f5d64736f6c63430005100032",
  "source": "pragma solidity >=0.4.22 <0.7.0;\r\n\r\ncontract MarketPlace {\r\n\r\n    address public Contract_owner;\r\n    // data structure that stores a user\r\n    \r\n    uint public balance = 0;\r\n    \r\n    /// destroy the contract and reclaim the leftover funds.\r\n    function kill() public {\r\n        require(msg.sender == Contract_owner);\r\n        selfdestruct(msg.sender);\r\n    }\r\n\r\n    struct User {\r\n        string name;\r\n        bytes32 status;\r\n        address walletAddress;\r\n        uint createdAt;\r\n        uint updatedAt;\r\n        uint consulted;\r\n        uint paid; \r\n    }\r\n\r\n    struct Order{\r\n\r\n        address product;\r\n        address costumer;\r\n        address supplier;\r\n        \r\n        bytes32 product_name;\r\n        bytes32 costumer_category;\r\n        bytes32 supplier_category;\r\n        \r\n        uint amount;\r\n        uint value;\r\n        uint timestamp;\r\n         \r\n        uint consulted;\r\n    }\r\n\r\n    // Array of User that holds the list of users and their details\r\n    User[] public users;\r\n\r\n    // Array of User that holds the list of users and their details\r\n    Order[] public orders;\r\n\r\n    // it maps the user's wallet address with the user ID\r\n    mapping (address => uint) public usersIds;\r\n\r\n    // event fired when an user is registered\r\n    event newUserRegistered(uint id);\r\n\r\n    // event fired when the user updates his status or name\r\n    event userUpdateEvent(uint id);\r\n\r\n    // Modifier: check if the caller of the smart contract is registered\r\n    modifier checkSenderIsRegistered {\r\n        require(isRegistered());\r\n        _;\r\n    }\r\n    \r\n    function stringToBytes32(string memory source) public pure returns (bytes32 result) {\r\n        bytes memory tempEmptyStringTest = bytes(source);\r\n        if (tempEmptyStringTest.length == 0) {\r\n            return 0x0;\r\n        }\r\n    \r\n        assembly {\r\n            result := mload(add(source, 32))\r\n        }\r\n    }\r\n\r\n    constructor() public\r\n    {\r\n        Contract_owner = msg.sender;\r\n        addUser(address(0x0), \"dummy_user\", \"dummy_user\");\r\n        addUser(msg.sender, \"Contract_owner\", \"Contract_owner\");\r\n        \r\n        orders.push( Order(address(0x0),address(0x0),address(0x0),\"dummy_order\",\"dummy_order\", \"dummy_order\", 1, 2, 3, 0) );\r\n    }\r\n\r\n    function registerUser(string memory _userName, bytes32 _status) public\r\n    returns(uint)\r\n    {\r\n        return addUser(msg.sender, _userName, _status);\r\n    }\r\n\r\n    function addUser(address _wAddr, string memory  _userName, bytes32 _status) private\r\n    returns(uint){\r\n         // checking if the user is already registered\r\n        uint userId = usersIds[_wAddr];\r\n        require (userId == 0);\r\n\r\n        // associating the user wallet address with the new ID\r\n        usersIds[_wAddr] = users.length;\r\n        uint newUserId = users.length++;\r\n\r\n        // storing the new user details\r\n        users[newUserId] = User({\r\n            name: _userName,\r\n            status: _status,\r\n            walletAddress: _wAddr,\r\n            createdAt: now,\r\n            updatedAt: now,\r\n            consulted: 0,\r\n            paid: 0\r\n        });\r\n\r\n        // emitting the event that a new user has been registered\r\n        emit newUserRegistered(newUserId);\r\n\r\n        return newUserId;\r\n    }\r\n\r\n    /**\r\n     * Update the user profile of the caller of this method.\r\n     * Note: the user can modify only his own profile, because of checkSenderIsRegistered modifier.\r\n     */\r\n    function updateUser( string memory _newUserName, \r\n                         bytes32 _newStatus) \r\n        checkSenderIsRegistered public\r\n        returns(uint)\r\n        {\r\n            // An user can modify only his own profile.\r\n            uint userId = usersIds[msg.sender];\r\n\r\n            User storage user = users[userId];\r\n\r\n            user.name = _newUserName;\r\n            user.status = _newStatus;\r\n            user.updatedAt = now;\r\n\r\n            emit userUpdateEvent(userId);\r\n\r\n            return userId;\r\n    }\r\n\r\n    function getUserById(uint _id) public view\r\n    returns(\r\n        uint,\r\n        string memory,\r\n        bytes32,\r\n        address,\r\n        uint,\r\n        uint,\r\n        uint,\r\n        uint\r\n    ) {\r\n        // checking if the ID is valid\r\n        require( (_id > 0) || (_id <= users.length) );\r\n        string memory name = \"user\";\r\n        User memory i = users[_id];\r\n        if(msg.sender == Contract_owner)\r\n            name = i.name;\r\n        return (\r\n            _id,\r\n            name,\r\n            i.status,\r\n            i.walletAddress,\r\n            i.createdAt,\r\n            i.updatedAt,\r\n            i.consulted,\r\n            i.paid\r\n        );\r\n    }\r\n\r\n    function getOrderById(uint _id) public view\r\n    returns(\r\n        uint,\r\n        bytes32,\r\n        bytes32,\r\n        bytes32,\r\n        uint,\r\n        uint,\r\n        uint\r\n    ) {\r\n        // checking if the ID is valid\r\n        require( (_id > 0) || (_id <= orders.length) );\r\n        string memory name = \"user\";\r\n        Order memory o = orders[_id];\r\n        return (\r\n            _id,\r\n            o.product_name,\r\n            o.costumer_category,\r\n            o.supplier_category,\r\n            o.amount,\r\n            o.value,\r\n            o.timestamp\r\n        );\r\n    }\r\n\r\n    /**\r\n     * Return the profile information of the caller.\r\n     */\r\n    function getOwnProfile() checkSenderIsRegistered public view\r\n    returns(\r\n        uint,\r\n        string memory,\r\n        bytes32,\r\n        address,\r\n        uint,\r\n        uint,\r\n        uint,\r\n        uint\r\n    ) {\r\n        uint id = usersIds[msg.sender];\r\n\r\n        return getUserById(id);\r\n    }\r\n\r\n    /**\r\n     * Check if the user that is calling the smart contract is registered.\r\n     */\r\n    function isRegistered() public view returns (bool)\r\n    {\r\n        return (usersIds[msg.sender] > 0);\r\n    }\r\n\r\n    function totalUsers() public view returns (uint)\r\n    {\r\n        return users.length - 1;\r\n    }\r\n\r\n    function totalOrders() public view returns (uint)\r\n    {\r\n        return orders.length - 1;\r\n    }\r\n    \r\n    function totalConsulted() public view returns (uint)\r\n    {\r\n        return users[ usersIds[ Contract_owner ] ].consulted;\r\n    }\r\n    \r\n    function totalPaid() public view returns (uint)\r\n    {\r\n        return users[ usersIds[ Contract_owner ] ].paid;\r\n    }\r\n\r\n    function placeOrderWallet(  address w_product, \r\n                                address w_costumer, \r\n                                uint amount, \r\n                                uint value) \r\n        public {\r\n            bytes32 product_category = users[ usersIds[w_product] ].status;\r\n            bytes32 costumer_category = users[ usersIds[w_costumer] ].status;\r\n            bytes32 supplier_category = users[ usersIds [msg.sender] ].status;\r\n            orders.push( \r\n                            Order(  w_product, \r\n                                    w_costumer, \r\n                                    msg.sender, \r\n                                    product_category, \r\n                                    costumer_category, \r\n                                    supplier_category, \r\n                                    amount,\r\n                                    value, \r\n                                    now, \r\n                                    0) \r\n                        );\r\n\r\n    }\r\n    function placeOrderID(      uint id_product, \r\n                                uint id_costumer, \r\n                                uint amount, \r\n                                uint value) \r\n        public {\r\n            require(id_product <= totalUsers());\r\n            require(id_costumer <= totalUsers());\r\n            bytes32 product_category = users[ id_product ].status;\r\n            bytes32 costumer_category = users[ id_costumer ].status;\r\n            bytes32 supplier_category = users[ usersIds[msg.sender] ].status;\r\n            orders.push( \r\n                            Order(  users[ id_product ].walletAddress, \r\n                                    users[ id_costumer ].walletAddress, \r\n                                    msg.sender, \r\n                                    product_category, \r\n                                    costumer_category, \r\n                                    supplier_category, \r\n                                    amount,\r\n                                    value, \r\n                                    now, \r\n                                    0) \r\n                        );\r\n\r\n    }\r\n    function reduceOrdersCheck(  bytes32 _product_name, \r\n                            bytes32 _costumer_category, \r\n                            uint _begin, \r\n                            uint _end ) \r\n\r\n        public view returns (uint)\r\n        {\r\n            \r\n            uint counter = 0;\r\n            bool flag1 = true; bool flag2 = true; bool flag3 = true;\r\n            bool flag4 = true; bool flag5 = true;\r\n            \r\n            for (uint i = 0; i < totalOrders(); i++) {\r\n                \r\n                if(_product_name.length > 0)\r\n                    flag1 = (orders[i].product_name == _product_name);\r\n                if(_costumer_category.length > 0)\r\n                    flag2 = (orders[i].costumer_category == _costumer_category);\r\n                if(_begin > 0)\r\n                    flag4 = (orders[i].timestamp >= _begin);        \r\n                if(_end > 0)\r\n                    flag5 = (orders[i].timestamp <= _end);\r\n                if( flag1 && flag2 && flag3 && flag4 && flag5 ){\r\n                    \r\n                    counter++;\r\n                }\r\n                \r\n            }\r\n        return counter;\r\n    }\r\n\r\n    function reduceOrders(  bytes32 _product_name, \r\n                            bytes32 _costumer_category, \r\n                            uint _begin, \r\n                            uint _end ) \r\n\r\n        payable public returns (int)\r\n        {\r\n\r\n            \r\n            //Receive(msg.value);\r\n            balance += msg.value;\r\n            uint amount = 0;\r\n            uint temp_amount = 0;\r\n            bool flag1 = true; bool flag2 = true; bool flag3 = true;\r\n            bool flag4 = true; bool flag5 = true;\r\n            \r\n            for (uint i = 0; i < totalOrders(); i++) {\r\n                \r\n                temp_amount = orders[i].value * orders[i].amount;\r\n                if(_product_name.length > 0)\r\n                    flag1 = (orders[i].product_name == _product_name);\r\n                if(_costumer_category.length > 0)\r\n                    flag2 = (orders[i].costumer_category == _costumer_category);\r\n                if(_begin > 0)\r\n                    flag4 = (orders[i].timestamp >= _begin);        \r\n                if(_end > 0)\r\n                    flag5 = (orders[i].timestamp <= _end);\r\n                if( flag1 && flag2 && flag3 && flag4 && flag5 ){\r\n                    \r\n                    orders[i].consulted++;\r\n                    users[ usersIds[ orders[i].costumer ] ].consulted++;\r\n                    users[ usersIds[ orders[i].supplier ] ].consulted++;\r\n                    users[ usersIds[ Contract_owner    ] ].consulted++;\r\n                    amount += temp_amount;\r\n                }\r\n                \r\n            }\r\n            \r\n            // // 109206 gas\r\n            //     orders[0].consulted++;\r\n            //     users[0].consulted++;\r\n            //     users[0].paid++;\r\n            //     users[1].consulted++;\r\n            //     users[1].paid++;\r\n            \r\n        return int(amount);\r\n    }\r\n    \r\n    function payDay() public payable  {\r\n            \r\n        require(msg.sender == Contract_owner);\r\n\r\n        require( address(this).balance > totalConsulted() );\r\n        \r\n        //uint payment = uint(address(this).balance / totalConsulted());\r\n        uint local_consulted = 0;\r\n        \r\n        for (uint i = 1; i < totalUsers(); i++) {\r\n                local_consulted = users[i].consulted;\r\n                users[i].walletAddress.call.value(1).gas(address(this).balance);\r\n                users[i].paid++;\r\n        }\r\n    }\r\n}\r\n",
  "sourcePath": "C:/Github/vuejs-restaurant-orders/contracts/MarketPlace.sol",
  "compiler": {
    "name": "solc",
    "version": "0.5.16+commit.9c3226ce.Emscripten.clang"
  },
  "schemaVersion": "3.2.4",
  "updatedAt": "2020-09-23T07:20:43.327Z",
  "devdoc": {
    "methods": {}
  },
  "userdoc": {
    "methods": {
      "getOwnProfile()": {
        "notice": "Return the profile information of the caller."
      },
      "isRegistered()": {
        "notice": "Check if the user that is calling the smart contract is registered."
      },
      "kill()": {
        "notice": "destroy the contract and reclaim the leftover funds."
      },
      "updateUser(string,bytes32)": {
        "notice": "Update the user profile of the caller of this method. Note: the user can modify only his own profile, because of checkSenderIsRegistered modifier."
      }
    }
  }
}