{
  "contractName": "MarketPlace",
  "abi": [
    {
      "inputs": [],
      "payable": false,
      "stateMutability": "nonpayable",
      "type": "constructor"
    },
    {
      "anonymous": false,
      "inputs": [
        {
          "indexed": false,
          "internalType": "uint256",
          "name": "id",
          "type": "uint256"
        }
      ],
      "name": "newUserRegistered",
      "type": "event"
    },
    {
      "anonymous": false,
      "inputs": [
        {
          "indexed": false,
          "internalType": "uint256",
          "name": "id",
          "type": "uint256"
        }
      ],
      "name": "userUpdateEvent",
      "type": "event"
    },
    {
      "constant": true,
      "inputs": [
        {
          "internalType": "uint256",
          "name": "",
          "type": "uint256"
        }
      ],
      "name": "orders",
      "outputs": [
        {
          "internalType": "address",
          "name": "product",
          "type": "address"
        },
        {
          "internalType": "address",
          "name": "costumer",
          "type": "address"
        },
        {
          "internalType": "address",
          "name": "supplier",
          "type": "address"
        },
        {
          "internalType": "bytes32",
          "name": "product_name",
          "type": "bytes32"
        },
        {
          "internalType": "bytes32",
          "name": "costumer_category",
          "type": "bytes32"
        },
        {
          "internalType": "bytes32",
          "name": "supplier_category",
          "type": "bytes32"
        },
        {
          "internalType": "uint256",
          "name": "amount",
          "type": "uint256"
        },
        {
          "internalType": "uint256",
          "name": "value",
          "type": "uint256"
        },
        {
          "internalType": "uint256",
          "name": "timestamp",
          "type": "uint256"
        },
        {
          "internalType": "uint256",
          "name": "consulted",
          "type": "uint256"
        }
      ],
      "payable": false,
      "stateMutability": "view",
      "type": "function"
    },
    {
      "constant": true,
      "inputs": [
        {
          "internalType": "uint256",
          "name": "",
          "type": "uint256"
        }
      ],
      "name": "users",
      "outputs": [
        {
          "internalType": "string",
          "name": "name",
          "type": "string"
        },
        {
          "internalType": "bytes32",
          "name": "status",
          "type": "bytes32"
        },
        {
          "internalType": "address",
          "name": "walletAddress",
          "type": "address"
        },
        {
          "internalType": "uint256",
          "name": "createdAt",
          "type": "uint256"
        },
        {
          "internalType": "uint256",
          "name": "updatedAt",
          "type": "uint256"
        }
      ],
      "payable": false,
      "stateMutability": "view",
      "type": "function"
    },
    {
      "constant": true,
      "inputs": [
        {
          "internalType": "address",
          "name": "",
          "type": "address"
        }
      ],
      "name": "usersIds",
      "outputs": [
        {
          "internalType": "uint256",
          "name": "",
          "type": "uint256"
        }
      ],
      "payable": false,
      "stateMutability": "view",
      "type": "function"
    },
    {
      "constant": true,
      "inputs": [
        {
          "internalType": "string",
          "name": "source",
          "type": "string"
        }
      ],
      "name": "stringToBytes32",
      "outputs": [
        {
          "internalType": "bytes32",
          "name": "result",
          "type": "bytes32"
        }
      ],
      "payable": false,
      "stateMutability": "pure",
      "type": "function"
    },
    {
      "constant": false,
      "inputs": [
        {
          "internalType": "string",
          "name": "_userName",
          "type": "string"
        },
        {
          "internalType": "bytes32",
          "name": "_status",
          "type": "bytes32"
        }
      ],
      "name": "registerUser",
      "outputs": [
        {
          "internalType": "uint256",
          "name": "",
          "type": "uint256"
        }
      ],
      "payable": false,
      "stateMutability": "nonpayable",
      "type": "function"
    },
    {
      "constant": false,
      "inputs": [
        {
          "internalType": "string",
          "name": "_newUserName",
          "type": "string"
        },
        {
          "internalType": "bytes32",
          "name": "_newStatus",
          "type": "bytes32"
        }
      ],
      "name": "updateUser",
      "outputs": [
        {
          "internalType": "uint256",
          "name": "",
          "type": "uint256"
        }
      ],
      "payable": false,
      "stateMutability": "nonpayable",
      "type": "function"
    },
    {
      "constant": true,
      "inputs": [
        {
          "internalType": "uint256",
          "name": "_id",
          "type": "uint256"
        }
      ],
      "name": "getUserById",
      "outputs": [
        {
          "internalType": "uint256",
          "name": "",
          "type": "uint256"
        },
        {
          "internalType": "string",
          "name": "",
          "type": "string"
        },
        {
          "internalType": "bytes32",
          "name": "",
          "type": "bytes32"
        },
        {
          "internalType": "address",
          "name": "",
          "type": "address"
        },
        {
          "internalType": "uint256",
          "name": "",
          "type": "uint256"
        },
        {
          "internalType": "uint256",
          "name": "",
          "type": "uint256"
        }
      ],
      "payable": false,
      "stateMutability": "view",
      "type": "function"
    },
    {
      "constant": true,
      "inputs": [],
      "name": "getOwnProfile",
      "outputs": [
        {
          "internalType": "uint256",
          "name": "",
          "type": "uint256"
        },
        {
          "internalType": "string",
          "name": "",
          "type": "string"
        },
        {
          "internalType": "bytes32",
          "name": "",
          "type": "bytes32"
        },
        {
          "internalType": "address",
          "name": "",
          "type": "address"
        },
        {
          "internalType": "uint256",
          "name": "",
          "type": "uint256"
        },
        {
          "internalType": "uint256",
          "name": "",
          "type": "uint256"
        }
      ],
      "payable": false,
      "stateMutability": "view",
      "type": "function"
    },
    {
      "constant": true,
      "inputs": [],
      "name": "isRegistered",
      "outputs": [
        {
          "internalType": "bool",
          "name": "",
          "type": "bool"
        }
      ],
      "payable": false,
      "stateMutability": "view",
      "type": "function"
    },
    {
      "constant": true,
      "inputs": [],
      "name": "totalUsers",
      "outputs": [
        {
          "internalType": "uint256",
          "name": "",
          "type": "uint256"
        }
      ],
      "payable": false,
      "stateMutability": "view",
      "type": "function"
    },
    {
      "constant": true,
      "inputs": [],
      "name": "totalOrders",
      "outputs": [
        {
          "internalType": "uint256",
          "name": "",
          "type": "uint256"
        }
      ],
      "payable": false,
      "stateMutability": "view",
      "type": "function"
    },
    {
      "constant": false,
      "inputs": [
        {
          "internalType": "address",
          "name": "w_product",
          "type": "address"
        },
        {
          "internalType": "address",
          "name": "w_costumer",
          "type": "address"
        },
        {
          "internalType": "uint256",
          "name": "amount",
          "type": "uint256"
        },
        {
          "internalType": "uint256",
          "name": "value",
          "type": "uint256"
        }
      ],
      "name": "placeOrder",
      "outputs": [],
      "payable": false,
      "stateMutability": "nonpayable",
      "type": "function"
    },
    {
      "constant": false,
      "inputs": [
        {
          "internalType": "bytes32",
          "name": "_product_name",
          "type": "bytes32"
        },
        {
          "internalType": "bytes32",
          "name": "_costumer_category",
          "type": "bytes32"
        },
        {
          "internalType": "uint256",
          "name": "_begin",
          "type": "uint256"
        },
        {
          "internalType": "uint256",
          "name": "_end",
          "type": "uint256"
        }
      ],
      "name": "reduceOrders",
      "outputs": [
        {
          "internalType": "uint256",
          "name": "",
          "type": "uint256"
        }
      ],
      "payable": true,
      "stateMutability": "payable",
      "type": "function"
    }
  ],
  "bytecode": "0x60806040523480156200001157600080fd5b50620000366000604051806020016040528060008152506000620005f160201b60201c565b506001604051806101400160405280600073ffffffffffffffffffffffffffffffffffffffff168152602001600073ffffffffffffffffffffffffffffffffffffffff168152602001600073ffffffffffffffffffffffffffffffffffffffff1681526020017f73797374656d5f6f72646572000000000000000000000000000000000000000081526020017f73797374656d5f6f72646572000000000000000000000000000000000000000081526020017f73797374656d5f6f726465720000000000000000000000000000000000000000815260200160018152602001600281526020016003815260200160008152509080600181540180825580915050906001820390600052602060002090600a02016000909192909190915060008201518160000160006101000a81548173ffffffffffffffffffffffffffffffffffffffff021916908373ffffffffffffffffffffffffffffffffffffffff16021790555060208201518160010160006101000a81548173ffffffffffffffffffffffffffffffffffffffff021916908373ffffffffffffffffffffffffffffffffffffffff16021790555060408201518160020160006101000a81548173ffffffffffffffffffffffffffffffffffffffff021916908373ffffffffffffffffffffffffffffffffffffffff160217905550606082015181600301556080820151816004015560a0820151816005015560c0820151816006015560e0820151816007015561010082015181600801556101208201518160090155505050620002e1651111111111116040518060400160405280600781526020017f446f75676c6173000000000000000000000000000000000000000000000000008152507f416c756e6f000000000000000000000000000000000000000000000000000000620005f160201b60201c565b5062000350652222222222226040518060400160405280600681526020017f53757a616e6100000000000000000000000000000000000000000000000000008152507f416c756e6f000000000000000000000000000000000000000000000000000000620005f160201b60201c565b50620003bf653333333333336040518060400160405280600781526020017f41726c696e646f000000000000000000000000000000000000000000000000008152507f50726f666573736f720000000000000000000000000000000000000000000000620005f160201b60201c565b506200042e654444444444446040518060400160405280600481526020017f4c75697a000000000000000000000000000000000000000000000000000000008152507f416c756e6f000000000000000000000000000000000000000000000000000000620005f160201b60201c565b506200049d655555555555556040518060400160405280600681526020017f42617461746100000000000000000000000000000000000000000000000000008152507f50726f6475746f00000000000000000000000000000000000000000000000000620005f160201b60201c565b506200050c656666666666666040518060400160405280600981526020017f43616c616272657a6100000000000000000000000000000000000000000000008152507f50726f6475746f00000000000000000000000000000000000000000000000000620005f160201b60201c565b506200057b657777777777776040518060400160405280600481526020017f5375636f000000000000000000000000000000000000000000000000000000008152507f50726f6475746f00000000000000000000000000000000000000000000000000620005f160201b60201c565b50620005ea658888888888886040518060400160405280600781526020017f43657276656a61000000000000000000000000000000000000000000000000008152507f50726f6475746f00000000000000000000000000000000000000000000000000620005f160201b60201c565b506200096c565b600080600260008673ffffffffffffffffffffffffffffffffffffffff1673ffffffffffffffffffffffffffffffffffffffff168152602001908152602001600020549050600081146200064457600080fd5b600080549050600260008773ffffffffffffffffffffffffffffffffffffffff1673ffffffffffffffffffffffffffffffffffffffff168152602001908152602001600020819055506000808054809190600101620006a49190620007c9565b90506040518060a001604052808681526020018581526020018773ffffffffffffffffffffffffffffffffffffffff1681526020014281526020014281525060008281548110620006f157fe5b906000526020600020906005020160008201518160000190805190602001906200071d929190620007fe565b506020820151816001015560408201518160020160006101000a81548173ffffffffffffffffffffffffffffffffffffffff021916908373ffffffffffffffffffffffffffffffffffffffff16021790555060608201518160030155608082015181600401559050507f2456c02735fb44894660d2af194ca5261385d8ee03675e1d75b0da1300a764cd816040518082815260200191505060405180910390a180925050509392505050565b815481835581811115620007f957600502816005028360005260206000209182019101620007f8919062000885565b5b505050565b828054600181600116156101000203166002900490600052602060002090601f016020900481019282601f106200084157805160ff191683800117855562000872565b8280016001018555821562000872579182015b828111156200087157825182559160200191906001019062000854565b5b509050620008819190620008f8565b5090565b620008f591905b80821115620008f15760008082016000620008a8919062000920565b60018201600090556002820160006101000a81549073ffffffffffffffffffffffffffffffffffffffff021916905560038201600090556004820160009055506005016200088c565b5090565b90565b6200091d91905b8082111562000919576000816000905550600101620008ff565b5090565b90565b50805460018160011615610100020316600290046000825580601f1062000948575062000969565b601f016020900490600052602060002090810190620009689190620008f8565b5b50565b6117c0806200097c6000396000f3fe6080604052600436106100c25760003560e01c80637b7a39651161007f578063b8e21a5b11610059578063b8e21a5b146106e3578063bff1f9e114610748578063cfb5192814610773578063fd1b51581461084f576100c2565b80637b7a39651461048b5780638f394715146104eb578063a85c38ef146105d1576100c2565b80631d834409146100c757806322366844146100f2578063365b98b214610121578063559bf6fd1461021d57806368ae5563146102a25780636ed6da9e14610388575b600080fd5b3480156100d357600080fd5b506100dc61092e565b6040518082815260200191505060405180910390f35b3480156100fe57600080fd5b5061010761093d565b604051808215151515815260200191505060405180910390f35b34801561012d57600080fd5b5061015a6004803603602081101561014457600080fd5b8101908080359060200190929190505050610986565b60405180806020018681526020018573ffffffffffffffffffffffffffffffffffffffff1673ffffffffffffffffffffffffffffffffffffffff168152602001848152602001838152602001828103825287818151815260200191508051906020019080838360005b838110156101de5780820151818401526020810190506101c3565b50505050905090810190601f16801561020b5780820380516001836020036101000a031916815260200191505b50965050505050505060405180910390f35b34801561022957600080fd5b506102a06004803603608081101561024057600080fd5b81019080803573ffffffffffffffffffffffffffffffffffffffff169060200190929190803573ffffffffffffffffffffffffffffffffffffffff1690602001909291908035906020019092919080359060200190929190505050610a81565b005b3480156102ae57600080fd5b50610372600480360360408110156102c557600080fd5b81019080803590602001906401000000008111156102e257600080fd5b8201836020820111156102f457600080fd5b8035906020019184600183028401116401000000008311171561031657600080fd5b91908080601f016020809104026020016040519081016040528093929190818152602001838380828437600081840152601f19601f82011690508083019250505050505050919291929080359060200190929190505050610d83565b6040518082815260200191505060405180910390f35b34801561039457600080fd5b506103c1600480360360208110156103ab57600080fd5b8101908080359060200190929190505050610d98565b60405180878152602001806020018681526020018573ffffffffffffffffffffffffffffffffffffffff1673ffffffffffffffffffffffffffffffffffffffff168152602001848152602001838152602001828103825287818151815260200191508051906020019080838360005b8381101561044b578082015181840152602081019050610430565b50505050905090810190601f1680156104785780820380516001836020036101000a031916815260200191505b5097505050505050505060405180910390f35b6104d5600480360360808110156104a157600080fd5b8101908080359060200190929190803590602001909291908035906020019092919080359060200190929190505050610f38565b6040518082815260200191505060405180910390f35b3480156104f757600080fd5b506105bb6004803603604081101561050e57600080fd5b810190808035906020019064010000000081111561052b57600080fd5b82018360208201111561053d57600080fd5b8035906020019184600183028401116401000000008311171561055f57600080fd5b91908080601f016020809104026020016040519081016040528093929190818152602001838380828437600081840152601f19601f820116905080830192505050505050509192919290803590602001909291905050506110f1565b6040518082815260200191505060405180910390f35b3480156105dd57600080fd5b5061060a600480360360208110156105f457600080fd5b81019080803590602001909291905050506111d3565b604051808b73ffffffffffffffffffffffffffffffffffffffff1673ffffffffffffffffffffffffffffffffffffffff1681526020018a73ffffffffffffffffffffffffffffffffffffffff1673ffffffffffffffffffffffffffffffffffffffff1681526020018973ffffffffffffffffffffffffffffffffffffffff1673ffffffffffffffffffffffffffffffffffffffff1681526020018881526020018781526020018681526020018581526020018481526020018381526020018281526020019a505050505050505050505060405180910390f35b3480156106ef57600080fd5b506107326004803603602081101561070657600080fd5b81019080803573ffffffffffffffffffffffffffffffffffffffff169060200190929190505050611294565b6040518082815260200191505060405180910390f35b34801561075457600080fd5b5061075d6112ac565b6040518082815260200191505060405180910390f35b34801561077f57600080fd5b506108396004803603602081101561079657600080fd5b81019080803590602001906401000000008111156107b357600080fd5b8201836020820111156107c557600080fd5b803590602001918460018302840111640100000000831117156107e757600080fd5b91908080601f016020809104026020016040519081016040528093929190818152602001838380828437600081840152601f19601f8201169050808301925050505050505091929192905050506112bc565b6040518082815260200191505060405180910390f35b34801561085b57600080fd5b506108646112e7565b60405180878152602001806020018681526020018573ffffffffffffffffffffffffffffffffffffffff1673ffffffffffffffffffffffffffffffffffffffff168152602001848152602001838152602001828103825287818151815260200191508051906020019080838360005b838110156108ee5780820151818401526020810190506108d3565b50505050905090810190601f16801561091b5780820380516001836020036101000a031916815260200191505b5097505050505050505060405180910390f35b60006001808054905003905090565b600080600260003373ffffffffffffffffffffffffffffffffffffffff1673ffffffffffffffffffffffffffffffffffffffff1681526020019081526020016000205411905090565b6000818154811061099357fe5b9060005260206000209060050201600091509050806000018054600181600116156101000203166002900480601f016020809104026020016040519081016040528092919081815260200182805460018160011615610100020316600290048015610a3f5780601f10610a1457610100808354040283529160200191610a3f565b820191906000526020600020905b815481529060010190602001808311610a2257829003601f168201915b5050505050908060010154908060020160009054906101000a900473ffffffffffffffffffffffffffffffffffffffff16908060030154908060040154905085565b600080600260008773ffffffffffffffffffffffffffffffffffffffff1673ffffffffffffffffffffffffffffffffffffffff1681526020019081526020016000205481548110610ace57fe5b9060005260206000209060050201600101549050600080600260008773ffffffffffffffffffffffffffffffffffffffff1673ffffffffffffffffffffffffffffffffffffffff1681526020019081526020016000205481548110610b2f57fe5b9060005260206000209060050201600101549050600080600260003373ffffffffffffffffffffffffffffffffffffffff1673ffffffffffffffffffffffffffffffffffffffff1681526020019081526020016000205481548110610b9057fe5b906000526020600020906005020160010154905060016040518061014001604052808973ffffffffffffffffffffffffffffffffffffffff1681526020018873ffffffffffffffffffffffffffffffffffffffff1681526020013373ffffffffffffffffffffffffffffffffffffffff16815260200185815260200184815260200183815260200187815260200186815260200142815260200160008152509080600181540180825580915050906001820390600052602060002090600a02016000909192909190915060008201518160000160006101000a81548173ffffffffffffffffffffffffffffffffffffffff021916908373ffffffffffffffffffffffffffffffffffffffff16021790555060208201518160010160006101000a81548173ffffffffffffffffffffffffffffffffffffffff021916908373ffffffffffffffffffffffffffffffffffffffff16021790555060408201518160020160006101000a81548173ffffffffffffffffffffffffffffffffffffffff021916908373ffffffffffffffffffffffffffffffffffffffff160217905550606082015181600301556080820151816004015560a0820151816005015560c0820151816006015560e082015181600701556101008201518160080155610120820151816009015550505050505050505050565b6000610d90338484611364565b905092915050565b600060606000806000806000871180610db657506000805490508711155b610dbf57600080fd5b610dc7611536565b60008881548110610dd457fe5b90600052602060002090600502016040518060a0016040529081600082018054600181600116156101000203166002900480601f016020809104026020016040519081016040528092919081815260200182805460018160011615610100020316600290048015610e865780601f10610e5b57610100808354040283529160200191610e86565b820191906000526020600020905b815481529060010190602001808311610e6957829003601f168201915b50505050508152602001600182015481526020016002820160009054906101000a900473ffffffffffffffffffffffffffffffffffffffff1673ffffffffffffffffffffffffffffffffffffffff1673ffffffffffffffffffffffffffffffffffffffff16815260200160038201548152602001600482015481525050905087816000015182602001518360400151846060015185608001518494509650965096509650965096505091939550919395565b6000806000905060006001905060006001905060006001905060006001905060006001905060008090505b610f6b61092e565b8110156110df57600060018281548110610f8157fe5b90600052602060002090600a02016006015460018381548110610fa057fe5b90600052602060002090600a0201600701540290506000602060ff161115610fe6578c60018381548110610fd057fe5b90600052602060002090600a0201600301541496505b6000602060ff161115611017578b6001838154811061100157fe5b90600052602060002090600a0201600401541495505b60008b1115611045578a6001838154811061102e57fe5b90600052602060002090600a020160080154101593505b60008a111561107357896001838154811061105c57fe5b90600052602060002090600a020160080154111592505b86801561107d5750855b80156110865750845b801561108f5750835b80156110985750825b156110d157600182815481106110aa57fe5b90600052602060002090600a02016009016000815480929190600101919050555080880197505b508080600101915050610f63565b50859650505050505050949350505050565b60006110fb61093d565b61110457600080fd5b6000600260003373ffffffffffffffffffffffffffffffffffffffff1673ffffffffffffffffffffffffffffffffffffffff168152602001908152602001600020549050600080828154811061115657fe5b906000526020600020906005020190508481600001908051906020019061117e92919061157e565b508381600101819055504281600401819055507f179dda4b314caed68129a8b8bbd77c7a4fb092c2d9fb3de452a4f8e4839dc876826040518082815260200191505060405180910390a1819250505092915050565b600181815481106111e057fe5b90600052602060002090600a02016000915090508060000160009054906101000a900473ffffffffffffffffffffffffffffffffffffffff16908060010160009054906101000a900473ffffffffffffffffffffffffffffffffffffffff16908060020160009054906101000a900473ffffffffffffffffffffffffffffffffffffffff1690806003015490806004015490806005015490806006015490806007015490806008015490806009015490508a565b60026020528060005260406000206000915090505481565b6000600160008054905003905090565b600060608290506000815114156112d9576000801b9150506112e2565b60208301519150505b919050565b600060606000806000806112f961093d565b61130257600080fd5b6000600260003373ffffffffffffffffffffffffffffffffffffffff1673ffffffffffffffffffffffffffffffffffffffff16815260200190815260200160002054905061134f81610d98565b96509650965096509650965050909192939495565b600080600260008673ffffffffffffffffffffffffffffffffffffffff1673ffffffffffffffffffffffffffffffffffffffff168152602001908152602001600020549050600081146113b657600080fd5b600080549050600260008773ffffffffffffffffffffffffffffffffffffffff1673ffffffffffffffffffffffffffffffffffffffff16815260200190815260200160002081905550600080805480919060010161141491906115fe565b90506040518060a001604052808681526020018581526020018773ffffffffffffffffffffffffffffffffffffffff168152602001428152602001428152506000828154811061146057fe5b9060005260206000209060050201600082015181600001908051906020019061148a929190611630565b506020820151816001015560408201518160020160006101000a81548173ffffffffffffffffffffffffffffffffffffffff021916908373ffffffffffffffffffffffffffffffffffffffff16021790555060608201518160030155608082015181600401559050507f2456c02735fb44894660d2af194ca5261385d8ee03675e1d75b0da1300a764cd816040518082815260200191505060405180910390a180925050509392505050565b6040518060a001604052806060815260200160008019168152602001600073ffffffffffffffffffffffffffffffffffffffff16815260200160008152602001600081525090565b828054600181600116156101000203166002900490600052602060002090601f016020900481019282601f106115bf57805160ff19168380011785556115ed565b828001600101855582156115ed579182015b828111156115ec5782518255916020019190600101906115d1565b5b5090506115fa91906116b0565b5090565b81548183558181111561162b5760050281600502836000526020600020918201910161162a91906116d5565b5b505050565b828054600181600116156101000203166002900490600052602060002090601f016020900481019282601f1061167157805160ff191683800117855561169f565b8280016001018555821561169f579182015b8281111561169e578251825591602001919060010190611683565b5b5090506116ac91906116b0565b5090565b6116d291905b808211156116ce5760008160009055506001016116b6565b5090565b90565b61174091905b8082111561173c57600080820160006116f49190611743565b60018201600090556002820160006101000a81549073ffffffffffffffffffffffffffffffffffffffff021916905560038201600090556004820160009055506005016116db565b5090565b90565b50805460018160011615610100020316600290046000825580601f106117695750611788565b601f01602090049060005260206000209081019061178791906116b0565b5b5056fea265627a7a72315820541f4a03876c3f5322a297da6ceb463eb87b0bd32d06ab8efc23561133d7f4a764736f6c63430005100032",
  "source": "pragma solidity ^0.5.0;\r\n\r\ncontract MarketPlace {\r\n    // data structure that stores a user\r\n    struct User {\r\n        string name;\r\n        bytes32 status;\r\n        address walletAddress;\r\n        uint createdAt;\r\n        uint updatedAt;\r\n    }\r\n\r\n    struct Order{\r\n        address product;\r\n        address costumer;\r\n        address supplier;\r\n        \r\n        bytes32 product_name;\r\n        bytes32 costumer_category;\r\n        bytes32 supplier_category;\r\n        \r\n        uint amount;\r\n        uint value;\r\n        uint timestamp;\r\n        \r\n        uint consulted;\r\n    }\r\n\r\n    // Array of User that holds the list of users and their details\r\n    User[] public users;\r\n\r\n    // Array of User that holds the list of users and their details\r\n    Order[] public orders;\r\n\r\n    // it maps the user's wallet address with the user ID\r\n    mapping (address => uint) public usersIds;\r\n\r\n    // event fired when an user is registered\r\n    event newUserRegistered(uint id);\r\n\r\n    // event fired when the user updates his status or name\r\n    event userUpdateEvent(uint id);\r\n\r\n    // Modifier: check if the caller of the smart contract is registered\r\n    modifier checkSenderIsRegistered {\r\n        require(isRegistered());\r\n        _;\r\n    }\r\n    \r\n    function stringToBytes32(string memory source) public pure returns (bytes32 result) {\r\n        bytes memory tempEmptyStringTest = bytes(source);\r\n        if (tempEmptyStringTest.length == 0) {\r\n            return 0x0;\r\n        }\r\n    \r\n        assembly {\r\n            result := mload(add(source, 32))\r\n        }\r\n    }\r\n\r\n    /**\r\n     * Constructor function\r\n     */\r\n    constructor() public\r\n    {\r\n        // NOTE: the first user MUST be emtpy: if you are trying to access to an element\r\n        // of the usersIds mapping that does not exist (like usersIds[0x12345]) you will\r\n        // receive 0, that's why in the first position (with index 0) must be initialized\r\n        addUser(address(0x0), \"\", \"\");\r\n        \r\n        orders.push( Order(address(0x0),address(0x0),address(0x0),\"system_order\",\"system_order\", \"system_order\", 1, 2, 3, 0) );\r\n\r\n        addUser(address(0x111111111111), \"Douglas\", \"Aluno\");\r\n        addUser(address(0x222222222222), \"Suzana\", \"Aluno\");\r\n        addUser(address(0x333333333333), \"Arlindo\", \"Professor\");\r\n        addUser(address(0x444444444444), \"Luiz\", \"Aluno\");\r\n\r\n        addUser(address(0x555555555555), \"Batata\", \"Produto\");\r\n        addUser(address(0x666666666666), \"Calabreza\", \"Produto\");\r\n        addUser(address(0x777777777777), \"Suco\", \"Produto\");\r\n        addUser(address(0x888888888888), \"Cerveja\", \"Produto\");\r\n    }\r\n\r\n\r\n    /**\r\n     * Function to register a new user.\r\n     *\r\n     * @param _userName         The displaying name\r\n     * @param _status        The status of the user\r\n     */\r\n    function registerUser(string memory _userName, bytes32 _status) public\r\n    returns(uint)\r\n    {\r\n        return addUser(msg.sender, _userName, _status);\r\n    }\r\n\r\n    /**\r\n     * Add a new user. This function must be private because an user\r\n     * cannot insert another user on behalf of someone else.\r\n     *\r\n     * @param _wAddr        Address wallet of the user\r\n     * @param _userName     Displaying name of the user\r\n     * @param _status       Status of the user\r\n     */\r\n    function addUser(address _wAddr, string memory  _userName, bytes32 _status) private\r\n    returns(uint)\r\n    {\r\n        // checking if the user is already registered\r\n        uint userId = usersIds[_wAddr];\r\n        require (userId == 0);\r\n\r\n        // associating the user wallet address with the new ID\r\n        usersIds[_wAddr] = users.length;\r\n        uint newUserId = users.length++;\r\n\r\n        // storing the new user details\r\n        users[newUserId] = User({\r\n            name: _userName,\r\n            status: _status,\r\n            walletAddress: _wAddr,\r\n            createdAt: now,\r\n            updatedAt: now\r\n        });\r\n\r\n        // emitting the event that a new user has been registered\r\n        emit newUserRegistered(newUserId);\r\n\r\n        return newUserId;\r\n    }\r\n\r\n    /**\r\n     * Update the user profile of the caller of this method.\r\n     * Note: the user can modify only his own profile.\r\n     *\r\n     * @param _newUserName  The new user's displaying name\r\n     * @param _newStatus    The new user's status\r\n     */\r\n    function updateUser(string memory _newUserName, bytes32 _newStatus) checkSenderIsRegistered public\r\n    returns(uint)\r\n    {\r\n        // An user can modify only his own profile.\r\n        uint userId = usersIds[msg.sender];\r\n\r\n        User storage user = users[userId];\r\n\r\n        user.name = _newUserName;\r\n        user.status = _newStatus;\r\n        user.updatedAt = now;\r\n\r\n        emit userUpdateEvent(userId);\r\n\r\n        return userId;\r\n    }\r\n\r\n    /**\r\n     * Get the user's profile information.\r\n     *\r\n     * @param _id   The ID of the user stored on the blockchain.\r\n     */\r\n    function getUserById(uint _id) public view\r\n    returns(\r\n        uint,\r\n        string memory,\r\n        bytes32,\r\n        address,\r\n        uint,\r\n        uint\r\n    ) {\r\n        // checking if the ID is valid\r\n        require( (_id > 0) || (_id <= users.length) );\r\n\r\n        User memory i = users[_id];\r\n\r\n        return (\r\n            _id,\r\n            i.name,\r\n            i.status,\r\n            i.walletAddress,\r\n            i.createdAt,\r\n            i.updatedAt\r\n        );\r\n    }\r\n\r\n    /**\r\n     * Return the profile information of the caller.\r\n     */\r\n    function getOwnProfile() checkSenderIsRegistered public view\r\n    returns(\r\n        uint,\r\n        string memory,\r\n        bytes32,\r\n        address,\r\n        uint,\r\n        uint\r\n    ) {\r\n        uint id = usersIds[msg.sender];\r\n\r\n        return getUserById(id);\r\n    }\r\n\r\n    /**\r\n     * Check if the user that is calling the smart contract is registered.\r\n     */\r\n    function isRegistered() public view returns (bool)\r\n    {\r\n        return (usersIds[msg.sender] > 0);\r\n    }\r\n\r\n    /**\r\n     * Return the number of total registered users.\r\n     */\r\n    function totalUsers() public view returns (uint)\r\n    {\r\n        // NOTE: the total registered user is length-1 because the user with\r\n        // index 0 is empty check the contructor: addUser(address(0x0), \"\", \"\");\r\n        return users.length - 1;\r\n    }\r\n\r\n    function totalOrders() public view returns (uint)\r\n    {\r\n        // NOTE: the total registered user is length-1 because the user with\r\n        // index 0 is empty check the contructor: addUser(address(0x0), \"\", \"\");\r\n        return orders.length - 1;\r\n    }\r\n\r\n    function placeOrder(address w_product, address w_costumer, uint amount, uint value) public {\r\n        bytes32 product_category = users[ usersIds[w_product] ].status;\r\n        bytes32 costumer_category = users[ usersIds[w_costumer] ].status;\r\n        bytes32 supplier_category = users[ usersIds [msg.sender] ].status;\r\n\r\n        orders.push( Order(w_product, w_costumer, msg.sender, product_category, costumer_category, supplier_category, amount,value, now, 0) );\r\n\r\n    }\r\n    function reduceOrders(bytes32 _product_name, bytes32 _costumer_category, \r\n                            uint _begin, uint _end\r\n                            //uint _amount, uint _value, uint _total\r\n                            ) payable public returns (uint)\r\n    {\r\n        uint amount = 0;\r\n        bool flag1 = true; bool flag2 = true; bool flag3 = true;\r\n        \r\n        bool flag4 = true; bool flag5 = true;\r\n        \r\n        //bool flag6 = true; bool flag7 = true; bool flag8 = true;\r\n        \r\n        for (uint i = 0; i < totalOrders(); i++) {\r\n            \r\n            uint temp_amount = orders[i].value * orders[i].amount;\r\n            \r\n            if(_product_name.length > 0)\r\n                flag1 = (orders[i].product_name == _product_name);\r\n            \r\n            if(_costumer_category.length > 0)\r\n                flag2 = (orders[i].costumer_category == _costumer_category);\r\n            \r\n            // if(_supplier_category.length > 0)\r\n            //     flag3 = (orders[i].supplier_category == _supplier_category);\r\n            \r\n            if(_begin > 0)\r\n                flag4 = (orders[i].timestamp >= _begin);\r\n                \r\n            if(_end > 0)\r\n                flag5 = (orders[i].timestamp <= _end);\r\n            \r\n            // if(_amount > 0)\r\n            //     flag6 = orders[i].amount == _amount;\r\n            \r\n            // if(_value > 0)\r\n            //     flag7 = orders[i].value == _value;\r\n                \r\n            // if(_total > 0)\r\n            //     flag8 = temp_amount == _total;\r\n                \r\n            if( flag1 && flag2 && flag3 && flag4 && flag5 ){\r\n                \r\n                orders[i].consulted++;\r\n                \r\n                amount += temp_amount;\r\n            }\r\n            \r\n        }\r\n        return amount;\r\n    }\r\n}\r\n",
  "sourcePath": "C:/Users/dldou/OneDrive/Documentos/GitHub/vuejs-restaurant-orders/contracts/MarketPlace.sol",
  "compiler": {
    "name": "solc",
    "version": "0.5.16+commit.9c3226ce.Emscripten.clang"
  },
  "schemaVersion": "3.2.4",
  "updatedAt": "2020-09-09T03:27:18.654Z",
  "networkType": "ethereum",
  "devdoc": {
    "methods": {
      "getUserById(uint256)": {
        "params": {
          "_id": "The ID of the user stored on the blockchain."
        }
      },
      "registerUser(string,bytes32)": {
        "params": {
          "_status": "The status of the user",
          "_userName": "The displaying name"
        }
      },
      "updateUser(string,bytes32)": {
        "params": {
          "_newStatus": "The new user's status",
          "_newUserName": "The new user's displaying name"
        }
      }
    }
  },
  "userdoc": {
    "methods": {
      "constructor": "Constructor function",
      "getOwnProfile()": {
        "notice": "Return the profile information of the caller."
      },
      "getUserById(uint256)": {
        "notice": "Get the user's profile information. "
      },
      "isRegistered()": {
        "notice": "Check if the user that is calling the smart contract is registered."
      },
      "registerUser(string,bytes32)": {
        "notice": "Function to register a new user. "
      },
      "totalUsers()": {
        "notice": "Return the number of total registered users."
      },
      "updateUser(string,bytes32)": {
        "notice": "Update the user profile of the caller of this method. Note: the user can modify only his own profile. "
      }
    }
  }
}