{
  "contractName": "MarketPlace",
  "abi": [
    {
      "inputs": [],
      "payable": false,
      "stateMutability": "nonpayable",
      "type": "constructor"
    },
    {
      "anonymous": false,
      "inputs": [
        {
          "indexed": false,
          "internalType": "uint256",
          "name": "id",
          "type": "uint256"
        }
      ],
      "name": "newUserRegistered",
      "type": "event"
    },
    {
      "anonymous": false,
      "inputs": [
        {
          "indexed": false,
          "internalType": "uint256",
          "name": "id",
          "type": "uint256"
        }
      ],
      "name": "userUpdateEvent",
      "type": "event"
    },
    {
      "constant": true,
      "inputs": [],
      "name": "Contract_owner",
      "outputs": [
        {
          "internalType": "address",
          "name": "",
          "type": "address"
        }
      ],
      "payable": false,
      "stateMutability": "view",
      "type": "function"
    },
    {
      "constant": true,
      "inputs": [],
      "name": "balance",
      "outputs": [
        {
          "internalType": "uint256",
          "name": "",
          "type": "uint256"
        }
      ],
      "payable": false,
      "stateMutability": "view",
      "type": "function"
    },
    {
      "constant": true,
      "inputs": [
        {
          "internalType": "uint256",
          "name": "",
          "type": "uint256"
        }
      ],
      "name": "orders",
      "outputs": [
        {
          "internalType": "address",
          "name": "product",
          "type": "address"
        },
        {
          "internalType": "address",
          "name": "costumer",
          "type": "address"
        },
        {
          "internalType": "address",
          "name": "supplier",
          "type": "address"
        },
        {
          "internalType": "bytes32",
          "name": "product_name",
          "type": "bytes32"
        },
        {
          "internalType": "bytes32",
          "name": "costumer_category",
          "type": "bytes32"
        },
        {
          "internalType": "bytes32",
          "name": "supplier_category",
          "type": "bytes32"
        },
        {
          "internalType": "uint256",
          "name": "amount",
          "type": "uint256"
        },
        {
          "internalType": "uint256",
          "name": "value",
          "type": "uint256"
        },
        {
          "internalType": "uint256",
          "name": "timestamp",
          "type": "uint256"
        },
        {
          "internalType": "uint256",
          "name": "consulted",
          "type": "uint256"
        }
      ],
      "payable": false,
      "stateMutability": "view",
      "type": "function"
    },
    {
      "constant": true,
      "inputs": [
        {
          "internalType": "uint256",
          "name": "",
          "type": "uint256"
        }
      ],
      "name": "users",
      "outputs": [
        {
          "internalType": "string",
          "name": "name",
          "type": "string"
        },
        {
          "internalType": "bytes32",
          "name": "status",
          "type": "bytes32"
        },
        {
          "internalType": "address",
          "name": "walletAddress",
          "type": "address"
        },
        {
          "internalType": "uint256",
          "name": "createdAt",
          "type": "uint256"
        },
        {
          "internalType": "uint256",
          "name": "updatedAt",
          "type": "uint256"
        },
        {
          "internalType": "uint256",
          "name": "consulted",
          "type": "uint256"
        },
        {
          "internalType": "uint256",
          "name": "paid",
          "type": "uint256"
        }
      ],
      "payable": false,
      "stateMutability": "view",
      "type": "function"
    },
    {
      "constant": true,
      "inputs": [
        {
          "internalType": "address",
          "name": "",
          "type": "address"
        }
      ],
      "name": "usersIds",
      "outputs": [
        {
          "internalType": "uint256",
          "name": "",
          "type": "uint256"
        }
      ],
      "payable": false,
      "stateMutability": "view",
      "type": "function"
    },
    {
      "constant": false,
      "inputs": [],
      "name": "kill",
      "outputs": [],
      "payable": false,
      "stateMutability": "nonpayable",
      "type": "function"
    },
    {
      "constant": true,
      "inputs": [
        {
          "internalType": "string",
          "name": "source",
          "type": "string"
        }
      ],
      "name": "stringToBytes32",
      "outputs": [
        {
          "internalType": "bytes32",
          "name": "result",
          "type": "bytes32"
        }
      ],
      "payable": false,
      "stateMutability": "pure",
      "type": "function"
    },
    {
      "constant": false,
      "inputs": [
        {
          "internalType": "string",
          "name": "_userName",
          "type": "string"
        },
        {
          "internalType": "bytes32",
          "name": "_status",
          "type": "bytes32"
        }
      ],
      "name": "registerUser",
      "outputs": [
        {
          "internalType": "uint256",
          "name": "",
          "type": "uint256"
        }
      ],
      "payable": false,
      "stateMutability": "nonpayable",
      "type": "function"
    },
    {
      "constant": false,
      "inputs": [
        {
          "internalType": "string",
          "name": "_newUserName",
          "type": "string"
        },
        {
          "internalType": "bytes32",
          "name": "_newStatus",
          "type": "bytes32"
        }
      ],
      "name": "updateUser",
      "outputs": [
        {
          "internalType": "uint256",
          "name": "",
          "type": "uint256"
        }
      ],
      "payable": false,
      "stateMutability": "nonpayable",
      "type": "function"
    },
    {
      "constant": true,
      "inputs": [
        {
          "internalType": "uint256",
          "name": "_id",
          "type": "uint256"
        }
      ],
      "name": "getUserById",
      "outputs": [
        {
          "internalType": "uint256",
          "name": "",
          "type": "uint256"
        },
        {
          "internalType": "string",
          "name": "",
          "type": "string"
        },
        {
          "internalType": "bytes32",
          "name": "",
          "type": "bytes32"
        },
        {
          "internalType": "address",
          "name": "",
          "type": "address"
        },
        {
          "internalType": "uint256",
          "name": "",
          "type": "uint256"
        },
        {
          "internalType": "uint256",
          "name": "",
          "type": "uint256"
        },
        {
          "internalType": "uint256",
          "name": "",
          "type": "uint256"
        },
        {
          "internalType": "uint256",
          "name": "",
          "type": "uint256"
        }
      ],
      "payable": false,
      "stateMutability": "view",
      "type": "function"
    },
    {
      "constant": true,
      "inputs": [],
      "name": "getOwnProfile",
      "outputs": [
        {
          "internalType": "uint256",
          "name": "",
          "type": "uint256"
        },
        {
          "internalType": "string",
          "name": "",
          "type": "string"
        },
        {
          "internalType": "bytes32",
          "name": "",
          "type": "bytes32"
        },
        {
          "internalType": "address",
          "name": "",
          "type": "address"
        },
        {
          "internalType": "uint256",
          "name": "",
          "type": "uint256"
        },
        {
          "internalType": "uint256",
          "name": "",
          "type": "uint256"
        },
        {
          "internalType": "uint256",
          "name": "",
          "type": "uint256"
        },
        {
          "internalType": "uint256",
          "name": "",
          "type": "uint256"
        }
      ],
      "payable": false,
      "stateMutability": "view",
      "type": "function"
    },
    {
      "constant": true,
      "inputs": [],
      "name": "isRegistered",
      "outputs": [
        {
          "internalType": "bool",
          "name": "",
          "type": "bool"
        }
      ],
      "payable": false,
      "stateMutability": "view",
      "type": "function"
    },
    {
      "constant": true,
      "inputs": [],
      "name": "totalUsers",
      "outputs": [
        {
          "internalType": "uint256",
          "name": "",
          "type": "uint256"
        }
      ],
      "payable": false,
      "stateMutability": "view",
      "type": "function"
    },
    {
      "constant": true,
      "inputs": [],
      "name": "totalOrders",
      "outputs": [
        {
          "internalType": "uint256",
          "name": "",
          "type": "uint256"
        }
      ],
      "payable": false,
      "stateMutability": "view",
      "type": "function"
    },
    {
      "constant": true,
      "inputs": [],
      "name": "totalConsulted",
      "outputs": [
        {
          "internalType": "uint256",
          "name": "",
          "type": "uint256"
        }
      ],
      "payable": false,
      "stateMutability": "view",
      "type": "function"
    },
    {
      "constant": true,
      "inputs": [],
      "name": "totalPaid",
      "outputs": [
        {
          "internalType": "uint256",
          "name": "",
          "type": "uint256"
        }
      ],
      "payable": false,
      "stateMutability": "view",
      "type": "function"
    },
    {
      "constant": false,
      "inputs": [
        {
          "internalType": "address",
          "name": "w_product",
          "type": "address"
        },
        {
          "internalType": "address",
          "name": "w_costumer",
          "type": "address"
        },
        {
          "internalType": "uint256",
          "name": "amount",
          "type": "uint256"
        },
        {
          "internalType": "uint256",
          "name": "value",
          "type": "uint256"
        }
      ],
      "name": "placeOrderWallet",
      "outputs": [],
      "payable": false,
      "stateMutability": "nonpayable",
      "type": "function"
    },
    {
      "constant": false,
      "inputs": [
        {
          "internalType": "uint256",
          "name": "id_product",
          "type": "uint256"
        },
        {
          "internalType": "uint256",
          "name": "id_costumer",
          "type": "uint256"
        },
        {
          "internalType": "uint256",
          "name": "amount",
          "type": "uint256"
        },
        {
          "internalType": "uint256",
          "name": "value",
          "type": "uint256"
        }
      ],
      "name": "placeOrderID",
      "outputs": [],
      "payable": false,
      "stateMutability": "nonpayable",
      "type": "function"
    },
    {
      "constant": true,
      "inputs": [
        {
          "internalType": "bytes32",
          "name": "_product_name",
          "type": "bytes32"
        },
        {
          "internalType": "bytes32",
          "name": "_costumer_category",
          "type": "bytes32"
        },
        {
          "internalType": "uint256",
          "name": "_begin",
          "type": "uint256"
        },
        {
          "internalType": "uint256",
          "name": "_end",
          "type": "uint256"
        }
      ],
      "name": "reduceOrdersCheck",
      "outputs": [
        {
          "internalType": "uint256",
          "name": "",
          "type": "uint256"
        }
      ],
      "payable": false,
      "stateMutability": "view",
      "type": "function"
    },
    {
      "constant": false,
      "inputs": [
        {
          "internalType": "bytes32",
          "name": "_product_name",
          "type": "bytes32"
        },
        {
          "internalType": "bytes32",
          "name": "_costumer_category",
          "type": "bytes32"
        },
        {
          "internalType": "uint256",
          "name": "_begin",
          "type": "uint256"
        },
        {
          "internalType": "uint256",
          "name": "_end",
          "type": "uint256"
        }
      ],
      "name": "reduceOrders",
      "outputs": [
        {
          "internalType": "int256",
          "name": "",
          "type": "int256"
        }
      ],
      "payable": true,
      "stateMutability": "payable",
      "type": "function"
    },
    {
      "constant": false,
      "inputs": [],
      "name": "payDay",
      "outputs": [],
      "payable": true,
      "stateMutability": "payable",
      "type": "function"
    }
  ],
  "bytecode": "0x608060405260006001553480156200001657600080fd5b50336000806101000a81548173ffffffffffffffffffffffffffffffffffffffff021916908373ffffffffffffffffffffffffffffffffffffffff160217905550620000c060006040518060400160405280600a81526020017f64756d6d795f75736572000000000000000000000000000000000000000000008152507f64756d6d795f75736572000000000000000000000000000000000000000000006200036c60201b60201c565b5062000129336040518060400160405280600e81526020017f436f6e74726163745f6f776e65720000000000000000000000000000000000008152507f436f6e74726163745f6f776e65720000000000000000000000000000000000006200036c60201b60201c565b506003604051806101400160405280600073ffffffffffffffffffffffffffffffffffffffff168152602001600073ffffffffffffffffffffffffffffffffffffffff168152602001600073ffffffffffffffffffffffffffffffffffffffff1681526020017f64756d6d795f6f7264657200000000000000000000000000000000000000000081526020017f64756d6d795f6f7264657200000000000000000000000000000000000000000081526020017f64756d6d795f6f72646572000000000000000000000000000000000000000000815260200160018152602001600281526020016003815260200160008152509080600181540180825580915050906001820390600052602060002090600a02016000909192909190915060008201518160000160006101000a81548173ffffffffffffffffffffffffffffffffffffffff021916908373ffffffffffffffffffffffffffffffffffffffff16021790555060208201518160010160006101000a81548173ffffffffffffffffffffffffffffffffffffffff021916908373ffffffffffffffffffffffffffffffffffffffff16021790555060408201518160020160006101000a81548173ffffffffffffffffffffffffffffffffffffffff021916908373ffffffffffffffffffffffffffffffffffffffff160217905550606082015181600301556080820151816004015560a0820151816005015560c0820151816006015560e08201518160070155610100820151816008015561012082015181600901555050506200071a565b600080600460008673ffffffffffffffffffffffffffffffffffffffff1673ffffffffffffffffffffffffffffffffffffffff16815260200190815260200160002054905060008114620003bf57600080fd5b600280549050600460008773ffffffffffffffffffffffffffffffffffffffff1673ffffffffffffffffffffffffffffffffffffffff1681526020019081526020016000208190555060006002805480919060010162000420919062000567565b90506040518060e001604052808681526020018581526020018773ffffffffffffffffffffffffffffffffffffffff168152602001428152602001428152602001600081526020016000815250600282815481106200047b57fe5b90600052602060002090600702016000820151816000019080519060200190620004a79291906200059c565b506020820151816001015560408201518160020160006101000a81548173ffffffffffffffffffffffffffffffffffffffff021916908373ffffffffffffffffffffffffffffffffffffffff160217905550606082015181600301556080820151816004015560a0820151816005015560c082015181600601559050507f2456c02735fb44894660d2af194ca5261385d8ee03675e1d75b0da1300a764cd816040518082815260200191505060405180910390a180925050509392505050565b815481835581811115620005975760070281600702836000526020600020918201910162000596919062000623565b5b505050565b828054600181600116156101000203166002900490600052602060002090601f016020900481019282601f10620005df57805160ff191683800117855562000610565b8280016001018555821562000610579182015b828111156200060f578251825591602001919060010190620005f2565b5b5090506200061f9190620006a6565b5090565b620006a391905b808211156200069f5760008082016000620006469190620006ce565b60018201600090556002820160006101000a81549073ffffffffffffffffffffffffffffffffffffffff02191690556003820160009055600482016000905560058201600090556006820160009055506007016200062a565b5090565b90565b620006cb91905b80821115620006c7576000816000905550600101620006ad565b5090565b90565b50805460018160011615610100020316600290046000825580601f10620006f6575062000717565b601f016020900490600052602060002090810190620007169190620006a6565b5b50565b6123c3806200072a6000396000f3fe60806040526004361061012a5760003560e01c8063789b2e6c116100ab578063b8e21a5b1161006f578063b8e21a5b146108a2578063bff1f9e114610907578063cfb5192814610932578063e7b0f66614610a0e578063ed60495014610a39578063fd1b515814610a925761012a565b8063789b2e6c146106155780637b7a39651461061f5780638f3947151461067f578063a85c38ef14610765578063b69ef8a8146108775761012a565b806341c0e1b5116100f257806341c0e1b514610315578063450324d91461032c5780634d180e9e146103b157806368ae55631461041e5780636ed6da9e146105045761012a565b80631d8344091461012f5780631f21d2ba1461015a57806322366844146101b15780632d4e97cd146101e0578063365b98b21461020b575b600080fd5b34801561013b57600080fd5b50610144610b7f565b6040518082815260200191505060405180910390f35b34801561016657600080fd5b5061016f610b8f565b604051808273ffffffffffffffffffffffffffffffffffffffff1673ffffffffffffffffffffffffffffffffffffffff16815260200191505060405180910390f35b3480156101bd57600080fd5b506101c6610bb4565b604051808215151515815260200191505060405180910390f35b3480156101ec57600080fd5b506101f5610bfd565b6040518082815260200191505060405180910390f35b34801561021757600080fd5b506102446004803603602081101561022e57600080fd5b8101908080359060200190929190505050610c83565b60405180806020018881526020018773ffffffffffffffffffffffffffffffffffffffff1673ffffffffffffffffffffffffffffffffffffffff168152602001868152602001858152602001848152602001838152602001828103825289818151815260200191508051906020019080838360005b838110156102d45780820151818401526020810190506102b9565b50505050905090810190601f1680156103015780820380516001836020036101000a031916815260200191505b509850505050505050505060405180910390f35b34801561032157600080fd5b5061032a610d8a565b005b34801561033857600080fd5b506103af6004803603608081101561034f57600080fd5b81019080803573ffffffffffffffffffffffffffffffffffffffff169060200190929190803573ffffffffffffffffffffffffffffffffffffffff1690602001909291908035906020019092919080359060200190929190505050610dfc565b005b3480156103bd57600080fd5b50610408600480360360808110156103d457600080fd5b8101908080359060200190929190803590602001909291908035906020019092919080359060200190929190505050611101565b6040518082815260200191505060405180910390f35b34801561042a57600080fd5b506104ee6004803603604081101561044157600080fd5b810190808035906020019064010000000081111561045e57600080fd5b82018360208201111561047057600080fd5b8035906020019184600183028401116401000000008311171561049257600080fd5b91908080601f016020809104026020016040519081016040528093929190818152602001838380828437600081840152601f19601f8201169050808301925050505050505091929192908035906020019092919050505061124b565b6040518082815260200191505060405180910390f35b34801561051057600080fd5b5061053d6004803603602081101561052757600080fd5b8101908080359060200190929190505050611260565b60405180898152602001806020018881526020018773ffffffffffffffffffffffffffffffffffffffff1673ffffffffffffffffffffffffffffffffffffffff168152602001868152602001858152602001848152602001838152602001828103825289818151815260200191508051906020019080838360005b838110156105d35780820151818401526020810190506105b8565b50505050905090810190601f1680156106005780820380516001836020036101000a031916815260200191505b50995050505050505050505060405180910390f35b61061d611427565b005b6106696004803603608081101561063557600080fd5b810190808035906020019092919080359060200190929190803590602001909291908035906020019092919050505061156a565b6040518082815260200191505060405180910390f35b34801561068b57600080fd5b5061074f600480360360408110156106a257600080fd5b81019080803590602001906401000000008111156106bf57600080fd5b8201836020820111156106d157600080fd5b803590602001918460018302840111640100000000831117156106f357600080fd5b91908080601f016020809104026020016040519081016040528093929190818152602001838380828437600081840152601f19601f8201169050808301925050505050505091929192908035906020019092919050505061191a565b6040518082815260200191505060405180910390f35b34801561077157600080fd5b5061079e6004803603602081101561078857600080fd5b81019080803590602001909291905050506119fd565b604051808b73ffffffffffffffffffffffffffffffffffffffff1673ffffffffffffffffffffffffffffffffffffffff1681526020018a73ffffffffffffffffffffffffffffffffffffffff1673ffffffffffffffffffffffffffffffffffffffff1681526020018973ffffffffffffffffffffffffffffffffffffffff1673ffffffffffffffffffffffffffffffffffffffff1681526020018881526020018781526020018681526020018581526020018481526020018381526020018281526020019a505050505050505050505060405180910390f35b34801561088357600080fd5b5061088c611abe565b6040518082815260200191505060405180910390f35b3480156108ae57600080fd5b506108f1600480360360208110156108c557600080fd5b81019080803573ffffffffffffffffffffffffffffffffffffffff169060200190929190505050611ac4565b6040518082815260200191505060405180910390f35b34801561091357600080fd5b5061091c611adc565b6040518082815260200191505060405180910390f35b34801561093e57600080fd5b506109f86004803603602081101561095557600080fd5b810190808035906020019064010000000081111561097257600080fd5b82018360208201111561098457600080fd5b803590602001918460018302840111640100000000831117156109a657600080fd5b91908080601f016020809104026020016040519081016040528093929190818152602001838380828437600081840152601f19601f820116905080830192505050505050509192919290505050611aec565b6040518082815260200191505060405180910390f35b348015610a1a57600080fd5b50610a23611b17565b6040518082815260200191505060405180910390f35b348015610a4557600080fd5b50610a9060048036036080811015610a5c57600080fd5b8101908080359060200190929190803590602001909291908035906020019092919080359060200190929190505050611b9d565b005b348015610a9e57600080fd5b50610aa7611ea0565b60405180898152602001806020018881526020018773ffffffffffffffffffffffffffffffffffffffff1673ffffffffffffffffffffffffffffffffffffffff168152602001868152602001858152602001848152602001838152602001828103825289818151815260200191508051906020019080838360005b83811015610b3d578082015181840152602081019050610b22565b50505050905090810190601f168015610b6a5780820380516001836020036101000a031916815260200191505b50995050505050505050505060405180910390f35b6000600160038054905003905090565b6000809054906101000a900473ffffffffffffffffffffffffffffffffffffffff1681565b600080600460003373ffffffffffffffffffffffffffffffffffffffff1673ffffffffffffffffffffffffffffffffffffffff1681526020019081526020016000205411905090565b60006002600460008060009054906101000a900473ffffffffffffffffffffffffffffffffffffffff1673ffffffffffffffffffffffffffffffffffffffff1673ffffffffffffffffffffffffffffffffffffffff1681526020019081526020016000205481548110610c6c57fe5b906000526020600020906007020160050154905090565b60028181548110610c9057fe5b9060005260206000209060070201600091509050806000018054600181600116156101000203166002900480601f016020809104026020016040519081016040528092919081815260200182805460018160011615610100020316600290048015610d3c5780601f10610d1157610100808354040283529160200191610d3c565b820191906000526020600020905b815481529060010190602001808311610d1f57829003601f168201915b5050505050908060010154908060020160009054906101000a900473ffffffffffffffffffffffffffffffffffffffff16908060030154908060040154908060050154908060060154905087565b6000809054906101000a900473ffffffffffffffffffffffffffffffffffffffff1673ffffffffffffffffffffffffffffffffffffffff163373ffffffffffffffffffffffffffffffffffffffff1614610de357600080fd5b3373ffffffffffffffffffffffffffffffffffffffff16ff5b60006002600460008773ffffffffffffffffffffffffffffffffffffffff1673ffffffffffffffffffffffffffffffffffffffff1681526020019081526020016000205481548110610e4a57fe5b906000526020600020906007020160010154905060006002600460008773ffffffffffffffffffffffffffffffffffffffff1673ffffffffffffffffffffffffffffffffffffffff1681526020019081526020016000205481548110610eac57fe5b906000526020600020906007020160010154905060006002600460003373ffffffffffffffffffffffffffffffffffffffff1673ffffffffffffffffffffffffffffffffffffffff1681526020019081526020016000205481548110610f0e57fe5b906000526020600020906007020160010154905060036040518061014001604052808973ffffffffffffffffffffffffffffffffffffffff1681526020018873ffffffffffffffffffffffffffffffffffffffff1681526020013373ffffffffffffffffffffffffffffffffffffffff16815260200185815260200184815260200183815260200187815260200186815260200142815260200160008152509080600181540180825580915050906001820390600052602060002090600a02016000909192909190915060008201518160000160006101000a81548173ffffffffffffffffffffffffffffffffffffffff021916908373ffffffffffffffffffffffffffffffffffffffff16021790555060208201518160010160006101000a81548173ffffffffffffffffffffffffffffffffffffffff021916908373ffffffffffffffffffffffffffffffffffffffff16021790555060408201518160020160006101000a81548173ffffffffffffffffffffffffffffffffffffffff021916908373ffffffffffffffffffffffffffffffffffffffff160217905550606082015181600301556080820151816004015560a0820151816005015560c0820151816006015560e082015181600701556101008201518160080155610120820151816009015550505050505050505050565b6000806000905060006001905060006001905060006001905060006001905060006001905060008090505b611134610b7f565b811015611239576000602060ff16111561116c578b6003828154811061115657fe5b90600052602060002090600a0201600301541495505b6000602060ff16111561119d578a6003828154811061118757fe5b90600052602060002090600a0201600401541494505b60008a11156111cb5789600382815481106111b457fe5b90600052602060002090600a020160080154101592505b60008911156111f95788600382815481106111e257fe5b90600052602060002090600a020160080154111591505b8580156112035750845b801561120c5750835b80156112155750825b801561121e5750815b1561122c5786806001019750505b808060010191505061112c565b50859650505050505050949350505050565b6000611258338484611f26565b905092915050565b60006060600080600080600080600089118061128157506002805490508911155b61128a57600080fd5b61129261211b565b60028a8154811061129f57fe5b90600052602060002090600702016040518060e0016040529081600082018054600181600116156101000203166002900480601f0160208091040260200160405190810160405280929190818152602001828054600181600116156101000203166002900480156113515780601f1061132657610100808354040283529160200191611351565b820191906000526020600020905b81548152906001019060200180831161133457829003601f168201915b50505050508152602001600182015481526020016002820160009054906101000a900473ffffffffffffffffffffffffffffffffffffffff1673ffffffffffffffffffffffffffffffffffffffff1673ffffffffffffffffffffffffffffffffffffffff168152602001600382015481526020016004820154815260200160058201548152602001600682015481525050905089816000015182602001518360400151846060015185608001518660a001518760c001518696509850985098509850985098509850985050919395975091939597565b6000809054906101000a900473ffffffffffffffffffffffffffffffffffffffff1673ffffffffffffffffffffffffffffffffffffffff163373ffffffffffffffffffffffffffffffffffffffff161461148057600080fd5b611488610bfd565b471161149357600080fd5b60008090506000600190505b6114a7611adc565b81101561156657600281815481106114bb57fe5b9060005260206000209060070201600501549150600281815481106114dc57fe5b906000526020600020906007020160020160009054906101000a900473ffffffffffffffffffffffffffffffffffffffff1673ffffffffffffffffffffffffffffffffffffffff16600147905050506002818154811061153857fe5b906000526020600020906007020160060160008154809291906001019190505550808060010191505061149f565b5050565b6000346001600082825401925050819055506000809050600080905060006001905060006001905060006001905060006001905060006001905060008090505b6115b2610b7f565b81101561190757600381815481106115c657fe5b90600052602060002090600a020160060154600382815481106115e557fe5b90600052602060002090600a0201600701540296506000602060ff16111561162b578c6003828154811061161557fe5b90600052602060002090600a0201600301541495505b6000602060ff16111561165c578b6003828154811061164657fe5b90600052602060002090600a0201600401541494505b60008b111561168a578a6003828154811061167357fe5b90600052602060002090600a020160080154101592505b60008a11156116b85789600382815481106116a157fe5b90600052602060002090600a020160080154111591505b8580156116c25750845b80156116cb5750835b80156116d45750825b80156116dd5750815b156118fa57600381815481106116ef57fe5b90600052602060002090600a0201600901600081548092919060010191905055506002600460006003848154811061172357fe5b90600052602060002090600a020160010160009054906101000a900473ffffffffffffffffffffffffffffffffffffffff1673ffffffffffffffffffffffffffffffffffffffff1673ffffffffffffffffffffffffffffffffffffffff168152602001908152602001600020548154811061179a57fe5b906000526020600020906007020160050160008154809291906001019190505550600260046000600384815481106117ce57fe5b90600052602060002090600a020160020160009054906101000a900473ffffffffffffffffffffffffffffffffffffffff1673ffffffffffffffffffffffffffffffffffffffff1673ffffffffffffffffffffffffffffffffffffffff168152602001908152602001600020548154811061184557fe5b9060005260206000209060070201600501600081548092919060010191905055506002600460008060009054906101000a900473ffffffffffffffffffffffffffffffffffffffff1673ffffffffffffffffffffffffffffffffffffffff1673ffffffffffffffffffffffffffffffffffffffff16815260200190815260200160002054815481106118d357fe5b90600052602060002090600702016005016000815480929190600101919050555086880197505b80806001019150506115aa565b5086975050505050505050949350505050565b6000611924610bb4565b61192d57600080fd5b6000600460003373ffffffffffffffffffffffffffffffffffffffff1673ffffffffffffffffffffffffffffffffffffffff16815260200190815260200160002054905060006002828154811061198057fe5b90600052602060002090600702019050848160000190805190602001906119a8929190612171565b508381600101819055504281600401819055507f179dda4b314caed68129a8b8bbd77c7a4fb092c2d9fb3de452a4f8e4839dc876826040518082815260200191505060405180910390a1819250505092915050565b60038181548110611a0a57fe5b90600052602060002090600a02016000915090508060000160009054906101000a900473ffffffffffffffffffffffffffffffffffffffff16908060010160009054906101000a900473ffffffffffffffffffffffffffffffffffffffff16908060020160009054906101000a900473ffffffffffffffffffffffffffffffffffffffff1690806003015490806004015490806005015490806006015490806007015490806008015490806009015490508a565b60015481565b60046020528060005260406000206000915090505481565b6000600160028054905003905090565b60006060829050600081511415611b09576000801b915050611b12565b60208301519150505b919050565b60006002600460008060009054906101000a900473ffffffffffffffffffffffffffffffffffffffff1673ffffffffffffffffffffffffffffffffffffffff1673ffffffffffffffffffffffffffffffffffffffff1681526020019081526020016000205481548110611b8657fe5b906000526020600020906007020160060154905090565b600060028581548110611bac57fe5b9060005260206000209060070201600101549050600060028581548110611bcf57fe5b906000526020600020906007020160010154905060006002600460003373ffffffffffffffffffffffffffffffffffffffff1673ffffffffffffffffffffffffffffffffffffffff1681526020019081526020016000205481548110611c3157fe5b9060005260206000209060070201600101549050600360405180610140016040528060028a81548110611c6057fe5b906000526020600020906007020160020160009054906101000a900473ffffffffffffffffffffffffffffffffffffffff1673ffffffffffffffffffffffffffffffffffffffff16815260200160028981548110611cba57fe5b906000526020600020906007020160020160009054906101000a900473ffffffffffffffffffffffffffffffffffffffff1673ffffffffffffffffffffffffffffffffffffffff1681526020013373ffffffffffffffffffffffffffffffffffffffff16815260200185815260200184815260200183815260200187815260200186815260200142815260200160008152509080600181540180825580915050906001820390600052602060002090600a02016000909192909190915060008201518160000160006101000a81548173ffffffffffffffffffffffffffffffffffffffff021916908373ffffffffffffffffffffffffffffffffffffffff16021790555060208201518160010160006101000a81548173ffffffffffffffffffffffffffffffffffffffff021916908373ffffffffffffffffffffffffffffffffffffffff16021790555060408201518160020160006101000a81548173ffffffffffffffffffffffffffffffffffffffff021916908373ffffffffffffffffffffffffffffffffffffffff160217905550606082015181600301556080820151816004015560a0820151816005015560c0820151816006015560e082015181600701556101008201518160080155610120820151816009015550505050505050505050565b60006060600080600080600080611eb5610bb4565b611ebe57600080fd5b6000600460003373ffffffffffffffffffffffffffffffffffffffff1673ffffffffffffffffffffffffffffffffffffffff168152602001908152602001600020549050611f0b81611260565b98509850985098509850985098509850509091929394959697565b600080600460008673ffffffffffffffffffffffffffffffffffffffff1673ffffffffffffffffffffffffffffffffffffffff16815260200190815260200160002054905060008114611f7857600080fd5b600280549050600460008773ffffffffffffffffffffffffffffffffffffffff1673ffffffffffffffffffffffffffffffffffffffff16815260200190815260200160002081905550600060028054809190600101611fd791906121f1565b90506040518060e001604052808681526020018581526020018773ffffffffffffffffffffffffffffffffffffffff1681526020014281526020014281526020016000815260200160008152506002828154811061203157fe5b9060005260206000209060070201600082015181600001908051906020019061205b929190612223565b506020820151816001015560408201518160020160006101000a81548173ffffffffffffffffffffffffffffffffffffffff021916908373ffffffffffffffffffffffffffffffffffffffff160217905550606082015181600301556080820151816004015560a0820151816005015560c082015181600601559050507f2456c02735fb44894660d2af194ca5261385d8ee03675e1d75b0da1300a764cd816040518082815260200191505060405180910390a180925050509392505050565b6040518060e001604052806060815260200160008019168152602001600073ffffffffffffffffffffffffffffffffffffffff168152602001600081526020016000815260200160008152602001600081525090565b828054600181600116156101000203166002900490600052602060002090601f016020900481019282601f106121b257805160ff19168380011785556121e0565b828001600101855582156121e0579182015b828111156121df5782518255916020019190600101906121c4565b5b5090506121ed91906122a3565b5090565b81548183558181111561221e5760070281600702836000526020600020918201910161221d91906122c8565b5b505050565b828054600181600116156101000203166002900490600052602060002090601f016020900481019282601f1061226457805160ff1916838001178555612292565b82800160010185558215612292579182015b82811115612291578251825591602001919060010190612276565b5b50905061229f91906122a3565b5090565b6122c591905b808211156122c15760008160009055506001016122a9565b5090565b90565b61234391905b8082111561233f57600080820160006122e79190612346565b60018201600090556002820160006101000a81549073ffffffffffffffffffffffffffffffffffffffff02191690556003820160009055600482016000905560058201600090556006820160009055506007016122ce565b5090565b90565b50805460018160011615610100020316600290046000825580601f1061236c575061238b565b601f01602090049060005260206000209081019061238a91906122a3565b5b5056fea265627a7a723158209595831dc1e75ff91b5843a6bd9d956364ad1d42756e15496214b3fc9f1f7d1b64736f6c63430005100032",
  "source": "pragma solidity >=0.4.22 <0.7.0;\r\n\r\ncontract MarketPlace {\r\n\r\n    address public Contract_owner;\r\n    // data structure that stores a user\r\n    \r\n    uint public balance = 0;\r\n    \r\n    /// destroy the contract and reclaim the leftover funds.\r\n    function kill() public {\r\n        require(msg.sender == Contract_owner);\r\n        selfdestruct(msg.sender);\r\n    }\r\n\r\n    struct User {\r\n        string name;\r\n        bytes32 status;\r\n        address walletAddress;\r\n        uint createdAt;\r\n        uint updatedAt;\r\n        uint consulted;\r\n        uint paid; \r\n    }\r\n\r\n    struct Order{\r\n\r\n        address product;\r\n        address costumer;\r\n        address supplier;\r\n        \r\n        bytes32 product_name;\r\n        bytes32 costumer_category;\r\n        bytes32 supplier_category;\r\n        \r\n        uint amount;\r\n        uint value;\r\n        uint timestamp;\r\n        \r\n        uint consulted;\r\n    }\r\n\r\n    // Array of User that holds the list of users and their details\r\n    User[] public users;\r\n\r\n    // Array of User that holds the list of users and their details\r\n    Order[] public orders;\r\n\r\n    // it maps the user's wallet address with the user ID\r\n    mapping (address => uint) public usersIds;\r\n\r\n    // event fired when an user is registered\r\n    event newUserRegistered(uint id);\r\n\r\n    // event fired when the user updates his status or name\r\n    event userUpdateEvent(uint id);\r\n\r\n    // Modifier: check if the caller of the smart contract is registered\r\n    modifier checkSenderIsRegistered {\r\n        require(isRegistered());\r\n        _;\r\n    }\r\n    \r\n    function stringToBytes32(string memory source) public pure returns (bytes32 result) {\r\n        bytes memory tempEmptyStringTest = bytes(source);\r\n        if (tempEmptyStringTest.length == 0) {\r\n            return 0x0;\r\n        }\r\n    \r\n        assembly {\r\n            result := mload(add(source, 32))\r\n        }\r\n    }\r\n\r\n    constructor() public\r\n    {\r\n        Contract_owner = msg.sender;\r\n        addUser(address(0x0), \"dummy_user\", \"dummy_user\");\r\n        addUser(msg.sender, \"Contract_owner\", \"Contract_owner\");\r\n        \r\n        orders.push( Order(address(0x0),address(0x0),address(0x0),\"dummy_order\",\"dummy_order\", \"dummy_order\", 1, 2, 3, 0) );\r\n    }\r\n\r\n    function registerUser(string memory _userName, bytes32 _status) public\r\n    returns(uint)\r\n    {\r\n        return addUser(msg.sender, _userName, _status);\r\n    }\r\n\r\n    function addUser(address _wAddr, string memory  _userName, bytes32 _status) private\r\n    returns(uint){\r\n         // checking if the user is already registered\r\n        uint userId = usersIds[_wAddr];\r\n        require (userId == 0);\r\n\r\n        // associating the user wallet address with the new ID\r\n        usersIds[_wAddr] = users.length;\r\n        uint newUserId = users.length++;\r\n\r\n        // storing the new user details\r\n        users[newUserId] = User({\r\n            name: _userName,\r\n            status: _status,\r\n            walletAddress: _wAddr,\r\n            createdAt: now,\r\n            updatedAt: now,\r\n            consulted: 0,\r\n            paid: 0\r\n        });\r\n\r\n        // emitting the event that a new user has been registered\r\n        emit newUserRegistered(newUserId);\r\n\r\n        return newUserId;\r\n    }\r\n\r\n    /**\r\n     * Update the user profile of the caller of this method.\r\n     * Note: the user can modify only his own profile, because of checkSenderIsRegistered modifier.\r\n     */\r\n    function updateUser( string memory _newUserName, \r\n                         bytes32 _newStatus) \r\n        checkSenderIsRegistered public\r\n        returns(uint)\r\n        {\r\n            // An user can modify only his own profile.\r\n            uint userId = usersIds[msg.sender];\r\n\r\n            User storage user = users[userId];\r\n\r\n            user.name = _newUserName;\r\n            user.status = _newStatus;\r\n            user.updatedAt = now;\r\n\r\n            emit userUpdateEvent(userId);\r\n\r\n            return userId;\r\n    }\r\n\r\n    function getUserById(uint _id) public view\r\n    returns(\r\n        uint,\r\n        string memory,\r\n        bytes32,\r\n        address,\r\n        uint,\r\n        uint,\r\n        uint,\r\n        uint\r\n    ) {\r\n        // checking if the ID is valid\r\n        require( (_id > 0) || (_id <= users.length) );\r\n\r\n        User memory i = users[_id];\r\n\r\n        return (\r\n            _id,\r\n            i.name,\r\n            i.status,\r\n            i.walletAddress,\r\n            i.createdAt,\r\n            i.updatedAt,\r\n            i.consulted,\r\n            i.paid\r\n        );\r\n    }\r\n\r\n    /**\r\n     * Return the profile information of the caller.\r\n     */\r\n    function getOwnProfile() checkSenderIsRegistered public view\r\n    returns(\r\n        uint,\r\n        string memory,\r\n        bytes32,\r\n        address,\r\n        uint,\r\n        uint,\r\n        uint,\r\n        uint\r\n    ) {\r\n        uint id = usersIds[msg.sender];\r\n\r\n        return getUserById(id);\r\n    }\r\n\r\n    /**\r\n     * Check if the user that is calling the smart contract is registered.\r\n     */\r\n    function isRegistered() public view returns (bool)\r\n    {\r\n        return (usersIds[msg.sender] > 0);\r\n    }\r\n\r\n    function totalUsers() public view returns (uint)\r\n    {\r\n        return users.length - 1;\r\n    }\r\n\r\n    function totalOrders() public view returns (uint)\r\n    {\r\n        return orders.length - 1;\r\n    }\r\n    \r\n    function totalConsulted() public view returns (uint)\r\n    {\r\n        return users[ usersIds[ Contract_owner ] ].consulted;\r\n    }\r\n    \r\n    function totalPaid() public view returns (uint)\r\n    {\r\n        return users[ usersIds[ Contract_owner ] ].paid;\r\n    }\r\n\r\n    function placeOrderWallet(  address w_product, \r\n                                address w_costumer, \r\n                                uint amount, \r\n                                uint value) \r\n        public {\r\n            bytes32 product_category = users[ usersIds[w_product] ].status;\r\n            bytes32 costumer_category = users[ usersIds[w_costumer] ].status;\r\n            bytes32 supplier_category = users[ usersIds [msg.sender] ].status;\r\n            orders.push( \r\n                            Order(  w_product, \r\n                                    w_costumer, \r\n                                    msg.sender, \r\n                                    product_category, \r\n                                    costumer_category, \r\n                                    supplier_category, \r\n                                    amount,\r\n                                    value, \r\n                                    now, \r\n                                    0) \r\n                        );\r\n\r\n    }\r\n    function placeOrderID(      uint id_product, \r\n                                uint id_costumer, \r\n                                uint amount, \r\n                                uint value) \r\n        public {\r\n            bytes32 product_category = users[ id_product ].status;\r\n            bytes32 costumer_category = users[ id_costumer ].status;\r\n            bytes32 supplier_category = users[ usersIds[msg.sender] ].status;\r\n            orders.push( \r\n                            Order(  users[ id_product ].walletAddress, \r\n                                    users[ id_costumer ].walletAddress, \r\n                                    msg.sender, \r\n                                    product_category, \r\n                                    costumer_category, \r\n                                    supplier_category, \r\n                                    amount,\r\n                                    value, \r\n                                    now, \r\n                                    0) \r\n                        );\r\n\r\n    }\r\n    function reduceOrdersCheck(  bytes32 _product_name, \r\n                            bytes32 _costumer_category, \r\n                            uint _begin, \r\n                            uint _end ) \r\n\r\n        public view returns (uint)\r\n        {\r\n            \r\n            uint counter = 0;\r\n            bool flag1 = true; bool flag2 = true; bool flag3 = true;\r\n            bool flag4 = true; bool flag5 = true;\r\n            \r\n            for (uint i = 0; i < totalOrders(); i++) {\r\n                \r\n                if(_product_name.length > 0)\r\n                    flag1 = (orders[i].product_name == _product_name);\r\n                if(_costumer_category.length > 0)\r\n                    flag2 = (orders[i].costumer_category == _costumer_category);\r\n                if(_begin > 0)\r\n                    flag4 = (orders[i].timestamp >= _begin);        \r\n                if(_end > 0)\r\n                    flag5 = (orders[i].timestamp <= _end);\r\n                if( flag1 && flag2 && flag3 && flag4 && flag5 ){\r\n                    \r\n                    counter++;\r\n                }\r\n                \r\n            }\r\n        return counter;\r\n    }\r\n\r\n    function reduceOrders(  bytes32 _product_name, \r\n                            bytes32 _costumer_category, \r\n                            uint _begin, \r\n                            uint _end ) \r\n\r\n        payable public returns (int)\r\n        {\r\n\r\n            // int min_payment = int((109206 * reduceOrdersCheck(_product_name,_costumer_category,_begin,_end) ) + 3);\r\n            \r\n            // if ( int(msg.value) < min_payment )\r\n            //     return int(msg.value) - min_payment ;\r\n            balance += msg.value;\r\n            uint amount = 0;\r\n            uint temp_amount = 0;\r\n            bool flag1 = true; bool flag2 = true; bool flag3 = true;\r\n            bool flag4 = true; bool flag5 = true;\r\n            \r\n            for (uint i = 0; i < totalOrders(); i++) {\r\n                \r\n                temp_amount = orders[i].value * orders[i].amount;\r\n                if(_product_name.length > 0)\r\n                    flag1 = (orders[i].product_name == _product_name);\r\n                if(_costumer_category.length > 0)\r\n                    flag2 = (orders[i].costumer_category == _costumer_category);\r\n                if(_begin > 0)\r\n                    flag4 = (orders[i].timestamp >= _begin);        \r\n                if(_end > 0)\r\n                    flag5 = (orders[i].timestamp <= _end);\r\n                if( flag1 && flag2 && flag3 && flag4 && flag5 ){\r\n                    \r\n                    orders[i].consulted++;\r\n                    users[ usersIds[ orders[i].costumer ] ].consulted++;\r\n                    users[ usersIds[ orders[i].supplier ] ].consulted++;\r\n                    users[ usersIds[ Contract_owner    ] ].consulted++;\r\n                    amount += temp_amount;\r\n                }\r\n                \r\n            }\r\n            \r\n            // // 109206 gas\r\n            //     orders[0].consulted++;\r\n            //     users[0].consulted++;\r\n            //     users[0].paid++;\r\n            //     users[1].consulted++;\r\n            //     users[1].paid++;\r\n            \r\n        return int(amount);\r\n    }\r\n    \r\n    function payDay() public payable  {\r\n            \r\n        require(msg.sender == Contract_owner);\r\n\r\n        require( address(this).balance > totalConsulted() );\r\n        \r\n        //uint payment = uint(address(this).balance / totalConsulted());\r\n        uint local_consulted = 0;\r\n        \r\n        for (uint i = 1; i < totalUsers(); i++) {\r\n                local_consulted = users[i].consulted;\r\n                users[i].walletAddress.call.value(1).gas(address(this).balance);\r\n                users[i].paid++;\r\n        }\r\n    }\r\n}\r\n",
  "sourcePath": "C:/vuejs-restaurant-orders/contracts/MarketPlace.sol",
  "compiler": {
    "name": "solc",
    "version": "0.5.16+commit.9c3226ce.Emscripten.clang"
  },
  "schemaVersion": "3.2.4",
  "updatedAt": "2020-09-16T04:34:42.933Z",
  "networkType": "ethereum",
  "devdoc": {
    "methods": {}
  },
  "userdoc": {
    "methods": {
      "getOwnProfile()": {
        "notice": "Return the profile information of the caller."
      },
      "isRegistered()": {
        "notice": "Check if the user that is calling the smart contract is registered."
      },
      "kill()": {
        "notice": "destroy the contract and reclaim the leftover funds."
      },
      "updateUser(string,bytes32)": {
        "notice": "Update the user profile of the caller of this method. Note: the user can modify only his own profile, because of checkSenderIsRegistered modifier."
      }
    }
  }
}