{
  "contractName": "MarketPlace",
  "abi": [
    {
      "inputs": [],
      "payable": false,
      "stateMutability": "nonpayable",
      "type": "constructor"
    },
    {
      "anonymous": false,
      "inputs": [
        {
          "indexed": false,
          "internalType": "uint256",
          "name": "id",
          "type": "uint256"
        }
      ],
      "name": "newUserRegistered",
      "type": "event"
    },
    {
      "anonymous": false,
      "inputs": [
        {
          "indexed": false,
          "internalType": "uint256",
          "name": "id",
          "type": "uint256"
        }
      ],
      "name": "userUpdateEvent",
      "type": "event"
    },
    {
      "constant": true,
      "inputs": [],
      "name": "Contract_owner",
      "outputs": [
        {
          "internalType": "address",
          "name": "",
          "type": "address"
        }
      ],
      "payable": false,
      "stateMutability": "view",
      "type": "function"
    },
    {
      "constant": true,
      "inputs": [],
      "name": "balance",
      "outputs": [
        {
          "internalType": "uint256",
          "name": "",
          "type": "uint256"
        }
      ],
      "payable": false,
      "stateMutability": "view",
      "type": "function"
    },
    {
      "constant": true,
      "inputs": [
        {
          "internalType": "uint256",
          "name": "",
          "type": "uint256"
        }
      ],
      "name": "orders",
      "outputs": [
        {
          "internalType": "address",
          "name": "product",
          "type": "address"
        },
        {
          "internalType": "address",
          "name": "costumer",
          "type": "address"
        },
        {
          "internalType": "address",
          "name": "supplier",
          "type": "address"
        },
        {
          "internalType": "bytes32",
          "name": "product_name",
          "type": "bytes32"
        },
        {
          "internalType": "bytes32",
          "name": "costumer_category",
          "type": "bytes32"
        },
        {
          "internalType": "bytes32",
          "name": "supplier_category",
          "type": "bytes32"
        },
        {
          "internalType": "uint256",
          "name": "amount",
          "type": "uint256"
        },
        {
          "internalType": "uint256",
          "name": "value",
          "type": "uint256"
        },
        {
          "internalType": "uint256",
          "name": "timestamp",
          "type": "uint256"
        },
        {
          "internalType": "uint256",
          "name": "consulted",
          "type": "uint256"
        }
      ],
      "payable": false,
      "stateMutability": "view",
      "type": "function"
    },
    {
      "constant": true,
      "inputs": [
        {
          "internalType": "uint256",
          "name": "",
          "type": "uint256"
        }
      ],
      "name": "users",
      "outputs": [
        {
          "internalType": "string",
          "name": "name",
          "type": "string"
        },
        {
          "internalType": "bytes32",
          "name": "status",
          "type": "bytes32"
        },
        {
          "internalType": "address",
          "name": "walletAddress",
          "type": "address"
        },
        {
          "internalType": "uint256",
          "name": "createdAt",
          "type": "uint256"
        },
        {
          "internalType": "uint256",
          "name": "updatedAt",
          "type": "uint256"
        },
        {
          "internalType": "uint256",
          "name": "consulted",
          "type": "uint256"
        },
        {
          "internalType": "uint256",
          "name": "paid",
          "type": "uint256"
        }
      ],
      "payable": false,
      "stateMutability": "view",
      "type": "function"
    },
    {
      "constant": true,
      "inputs": [
        {
          "internalType": "address",
          "name": "",
          "type": "address"
        }
      ],
      "name": "usersIds",
      "outputs": [
        {
          "internalType": "uint256",
          "name": "",
          "type": "uint256"
        }
      ],
      "payable": false,
      "stateMutability": "view",
      "type": "function"
    },
    {
      "constant": false,
      "inputs": [],
      "name": "kill",
      "outputs": [],
      "payable": false,
      "stateMutability": "nonpayable",
      "type": "function"
    },
    {
      "constant": true,
      "inputs": [
        {
          "internalType": "string",
          "name": "source",
          "type": "string"
        }
      ],
      "name": "stringToBytes32",
      "outputs": [
        {
          "internalType": "bytes32",
          "name": "result",
          "type": "bytes32"
        }
      ],
      "payable": false,
      "stateMutability": "pure",
      "type": "function"
    },
    {
      "constant": false,
      "inputs": [
        {
          "internalType": "string",
          "name": "_userName",
          "type": "string"
        },
        {
          "internalType": "bytes32",
          "name": "_status",
          "type": "bytes32"
        }
      ],
      "name": "registerUser",
      "outputs": [
        {
          "internalType": "uint256",
          "name": "",
          "type": "uint256"
        }
      ],
      "payable": false,
      "stateMutability": "nonpayable",
      "type": "function"
    },
    {
      "constant": false,
      "inputs": [
        {
          "internalType": "string",
          "name": "_newUserName",
          "type": "string"
        },
        {
          "internalType": "bytes32",
          "name": "_newStatus",
          "type": "bytes32"
        }
      ],
      "name": "updateUser",
      "outputs": [
        {
          "internalType": "uint256",
          "name": "",
          "type": "uint256"
        }
      ],
      "payable": false,
      "stateMutability": "nonpayable",
      "type": "function"
    },
    {
      "constant": true,
      "inputs": [
        {
          "internalType": "uint256",
          "name": "_id",
          "type": "uint256"
        }
      ],
      "name": "getUserById",
      "outputs": [
        {
          "internalType": "uint256",
          "name": "",
          "type": "uint256"
        },
        {
          "internalType": "string",
          "name": "",
          "type": "string"
        },
        {
          "internalType": "bytes32",
          "name": "",
          "type": "bytes32"
        },
        {
          "internalType": "address",
          "name": "",
          "type": "address"
        },
        {
          "internalType": "uint256",
          "name": "",
          "type": "uint256"
        },
        {
          "internalType": "uint256",
          "name": "",
          "type": "uint256"
        },
        {
          "internalType": "uint256",
          "name": "",
          "type": "uint256"
        },
        {
          "internalType": "uint256",
          "name": "",
          "type": "uint256"
        }
      ],
      "payable": false,
      "stateMutability": "view",
      "type": "function"
    },
    {
      "constant": false,
      "inputs": [
        {
          "internalType": "uint256",
          "name": "_id",
          "type": "uint256"
        }
      ],
      "name": "getOrderById",
      "outputs": [
        {
          "internalType": "uint256",
          "name": "",
          "type": "uint256"
        },
        {
          "internalType": "bytes32",
          "name": "",
          "type": "bytes32"
        },
        {
          "internalType": "bytes32",
          "name": "",
          "type": "bytes32"
        },
        {
          "internalType": "bytes32",
          "name": "",
          "type": "bytes32"
        },
        {
          "internalType": "uint256",
          "name": "",
          "type": "uint256"
        },
        {
          "internalType": "uint256",
          "name": "",
          "type": "uint256"
        },
        {
          "internalType": "uint256",
          "name": "",
          "type": "uint256"
        }
      ],
      "payable": true,
      "stateMutability": "payable",
      "type": "function"
    },
    {
      "constant": true,
      "inputs": [],
      "name": "getOwnProfile",
      "outputs": [
        {
          "internalType": "uint256",
          "name": "",
          "type": "uint256"
        },
        {
          "internalType": "string",
          "name": "",
          "type": "string"
        },
        {
          "internalType": "bytes32",
          "name": "",
          "type": "bytes32"
        },
        {
          "internalType": "address",
          "name": "",
          "type": "address"
        },
        {
          "internalType": "uint256",
          "name": "",
          "type": "uint256"
        },
        {
          "internalType": "uint256",
          "name": "",
          "type": "uint256"
        },
        {
          "internalType": "uint256",
          "name": "",
          "type": "uint256"
        },
        {
          "internalType": "uint256",
          "name": "",
          "type": "uint256"
        }
      ],
      "payable": false,
      "stateMutability": "view",
      "type": "function"
    },
    {
      "constant": true,
      "inputs": [],
      "name": "isRegistered",
      "outputs": [
        {
          "internalType": "bool",
          "name": "",
          "type": "bool"
        }
      ],
      "payable": false,
      "stateMutability": "view",
      "type": "function"
    },
    {
      "constant": true,
      "inputs": [],
      "name": "totalUsers",
      "outputs": [
        {
          "internalType": "uint256",
          "name": "",
          "type": "uint256"
        }
      ],
      "payable": false,
      "stateMutability": "view",
      "type": "function"
    },
    {
      "constant": true,
      "inputs": [],
      "name": "totalOrders",
      "outputs": [
        {
          "internalType": "uint256",
          "name": "",
          "type": "uint256"
        }
      ],
      "payable": false,
      "stateMutability": "view",
      "type": "function"
    },
    {
      "constant": true,
      "inputs": [],
      "name": "totalConsulted",
      "outputs": [
        {
          "internalType": "uint256",
          "name": "",
          "type": "uint256"
        }
      ],
      "payable": false,
      "stateMutability": "view",
      "type": "function"
    },
    {
      "constant": true,
      "inputs": [],
      "name": "totalPaid",
      "outputs": [
        {
          "internalType": "uint256",
          "name": "",
          "type": "uint256"
        }
      ],
      "payable": false,
      "stateMutability": "view",
      "type": "function"
    },
    {
      "constant": false,
      "inputs": [
        {
          "internalType": "address",
          "name": "w_product",
          "type": "address"
        },
        {
          "internalType": "address",
          "name": "w_costumer",
          "type": "address"
        },
        {
          "internalType": "uint256",
          "name": "amount",
          "type": "uint256"
        },
        {
          "internalType": "uint256",
          "name": "value",
          "type": "uint256"
        }
      ],
      "name": "placeOrderWallet",
      "outputs": [],
      "payable": false,
      "stateMutability": "nonpayable",
      "type": "function"
    },
    {
      "constant": false,
      "inputs": [
        {
          "internalType": "uint256",
          "name": "id_product",
          "type": "uint256"
        },
        {
          "internalType": "uint256",
          "name": "id_costumer",
          "type": "uint256"
        },
        {
          "internalType": "uint256",
          "name": "amount",
          "type": "uint256"
        },
        {
          "internalType": "uint256",
          "name": "value",
          "type": "uint256"
        }
      ],
      "name": "placeOrderID",
      "outputs": [],
      "payable": false,
      "stateMutability": "nonpayable",
      "type": "function"
    },
    {
      "constant": true,
      "inputs": [
        {
          "internalType": "bytes32",
          "name": "_product_name",
          "type": "bytes32"
        },
        {
          "internalType": "bytes32",
          "name": "_costumer_category",
          "type": "bytes32"
        },
        {
          "internalType": "uint256",
          "name": "_begin",
          "type": "uint256"
        },
        {
          "internalType": "uint256",
          "name": "_end",
          "type": "uint256"
        }
      ],
      "name": "reduceOrdersCheck",
      "outputs": [
        {
          "internalType": "uint256",
          "name": "",
          "type": "uint256"
        }
      ],
      "payable": false,
      "stateMutability": "view",
      "type": "function"
    },
    {
      "constant": false,
      "inputs": [
        {
          "internalType": "bytes32",
          "name": "_product_name",
          "type": "bytes32"
        },
        {
          "internalType": "bytes32",
          "name": "_costumer_category",
          "type": "bytes32"
        },
        {
          "internalType": "uint256",
          "name": "_begin",
          "type": "uint256"
        },
        {
          "internalType": "uint256",
          "name": "_end",
          "type": "uint256"
        }
      ],
      "name": "reduceOrders",
      "outputs": [
        {
          "internalType": "int256",
          "name": "",
          "type": "int256"
        }
      ],
      "payable": true,
      "stateMutability": "payable",
      "type": "function"
    },
    {
      "constant": false,
      "inputs": [],
      "name": "payDay",
      "outputs": [],
      "payable": true,
      "stateMutability": "payable",
      "type": "function"
    }
  ],
  "bytecode": "0x608060405260006001553480156200001657600080fd5b50336000806101000a81548173ffffffffffffffffffffffffffffffffffffffff021916908373ffffffffffffffffffffffffffffffffffffffff160217905550620000c060006040518060400160405280600a81526020017f64756d6d795f75736572000000000000000000000000000000000000000000008152507f64756d6d795f75736572000000000000000000000000000000000000000000006200036c60201b60201c565b5062000129336040518060400160405280600e81526020017f436f6e74726163745f6f776e65720000000000000000000000000000000000008152507f436f6e74726163745f6f776e65720000000000000000000000000000000000006200036c60201b60201c565b506003604051806101400160405280600073ffffffffffffffffffffffffffffffffffffffff168152602001600073ffffffffffffffffffffffffffffffffffffffff168152602001600073ffffffffffffffffffffffffffffffffffffffff1681526020017f64756d6d795f6f7264657200000000000000000000000000000000000000000081526020017f64756d6d795f6f7264657200000000000000000000000000000000000000000081526020017f64756d6d795f6f72646572000000000000000000000000000000000000000000815260200160018152602001600281526020016003815260200160008152509080600181540180825580915050906001820390600052602060002090600a02016000909192909190915060008201518160000160006101000a81548173ffffffffffffffffffffffffffffffffffffffff021916908373ffffffffffffffffffffffffffffffffffffffff16021790555060208201518160010160006101000a81548173ffffffffffffffffffffffffffffffffffffffff021916908373ffffffffffffffffffffffffffffffffffffffff16021790555060408201518160020160006101000a81548173ffffffffffffffffffffffffffffffffffffffff021916908373ffffffffffffffffffffffffffffffffffffffff160217905550606082015181600301556080820151816004015560a0820151816005015560c0820151816006015560e08201518160070155610100820151816008015561012082015181600901555050506200071a565b600080600460008673ffffffffffffffffffffffffffffffffffffffff1673ffffffffffffffffffffffffffffffffffffffff16815260200190815260200160002054905060008114620003bf57600080fd5b600280549050600460008773ffffffffffffffffffffffffffffffffffffffff1673ffffffffffffffffffffffffffffffffffffffff1681526020019081526020016000208190555060006002805480919060010162000420919062000567565b90506040518060e001604052808681526020018581526020018773ffffffffffffffffffffffffffffffffffffffff168152602001428152602001428152602001600081526020016000815250600282815481106200047b57fe5b90600052602060002090600702016000820151816000019080519060200190620004a79291906200059c565b506020820151816001015560408201518160020160006101000a81548173ffffffffffffffffffffffffffffffffffffffff021916908373ffffffffffffffffffffffffffffffffffffffff160217905550606082015181600301556080820151816004015560a0820151816005015560c082015181600601559050507f2456c02735fb44894660d2af194ca5261385d8ee03675e1d75b0da1300a764cd816040518082815260200191505060405180910390a180925050509392505050565b815481835581811115620005975760070281600702836000526020600020918201910162000596919062000623565b5b505050565b828054600181600116156101000203166002900490600052602060002090601f016020900481019282601f10620005df57805160ff191683800117855562000610565b8280016001018555821562000610579182015b828111156200060f578251825591602001919060010190620005f2565b5b5090506200061f9190620006a6565b5090565b620006a391905b808211156200069f5760008082016000620006469190620006ce565b60018201600090556002820160006101000a81549073ffffffffffffffffffffffffffffffffffffffff02191690556003820160009055600482016000905560058201600090556006820160009055506007016200062a565b5090565b90565b620006cb91905b80821115620006c7576000816000905550600101620006ad565b5090565b90565b50805460018160011615610100020316600290046000825580601f10620006f6575062000717565b601f016020900490600052602060002090810190620007169190620006a6565b5b50565b61297d806200072a6000396000f3fe6080604052600436106101355760003560e01c8063789b2e6c116100ab578063b8e21a5b1161006f578063b8e21a5b14610919578063bff1f9e11461097e578063cfb51928146109a9578063e7b0f66614610a85578063ed60495014610ab0578063fd1b515814610b0957610135565b8063789b2e6c1461068c5780637b7a3965146106965780638f394715146106f6578063a85c38ef146107dc578063b69ef8a8146108ee57610135565b806341c0e1b5116100fd57806341c0e1b51461032057806342b50a7a14610337578063450324d9146103a35780634d180e9e1461042857806368ae5563146104955780636ed6da9e1461057b57610135565b80631d8344091461013a5780631f21d2ba1461016557806322366844146101bc5780632d4e97cd146101eb578063365b98b214610216575b600080fd5b34801561014657600080fd5b5061014f610bf6565b6040518082815260200191505060405180910390f35b34801561017157600080fd5b5061017a610c06565b604051808273ffffffffffffffffffffffffffffffffffffffff1673ffffffffffffffffffffffffffffffffffffffff16815260200191505060405180910390f35b3480156101c857600080fd5b506101d1610c2b565b604051808215151515815260200191505060405180910390f35b3480156101f757600080fd5b50610200610c74565b6040518082815260200191505060405180910390f35b34801561022257600080fd5b5061024f6004803603602081101561023957600080fd5b8101908080359060200190929190505050610cfa565b60405180806020018881526020018773ffffffffffffffffffffffffffffffffffffffff1673ffffffffffffffffffffffffffffffffffffffff168152602001868152602001858152602001848152602001838152602001828103825289818151815260200191508051906020019080838360005b838110156102df5780820151818401526020810190506102c4565b50505050905090810190601f16801561030c5780820380516001836020036101000a031916815260200191505b509850505050505050505060405180910390f35b34801561032c57600080fd5b50610335610e01565b005b6103636004803603602081101561034d57600080fd5b8101908080359060200190929190505050610e73565b6040518088815260200187815260200186815260200185815260200184815260200183815260200182815260200197505050505050505060405180910390f35b3480156103af57600080fd5b50610426600480360360808110156103c657600080fd5b81019080803573ffffffffffffffffffffffffffffffffffffffff169060200190929190803573ffffffffffffffffffffffffffffffffffffffff169060200190929190803590602001909291908035906020019092919050505061125f565b005b34801561043457600080fd5b5061047f6004803603608081101561044b57600080fd5b8101908080359060200190929190803590602001909291908035906020019092919080359060200190929190505050611564565b6040518082815260200191505060405180910390f35b3480156104a157600080fd5b50610565600480360360408110156104b857600080fd5b81019080803590602001906401000000008111156104d557600080fd5b8201836020820111156104e757600080fd5b8035906020019184600183028401116401000000008311171561050957600080fd5b91908080601f016020809104026020016040519081016040528093929190818152602001838380828437600081840152601f19601f820116905080830192505050505050509192919290803590602001909291905050506116ae565b6040518082815260200191505060405180910390f35b34801561058757600080fd5b506105b46004803603602081101561059e57600080fd5b81019080803590602001909291905050506116c3565b60405180898152602001806020018881526020018773ffffffffffffffffffffffffffffffffffffffff1673ffffffffffffffffffffffffffffffffffffffff168152602001868152602001858152602001848152602001838152602001828103825289818151815260200191508051906020019080838360005b8381101561064a57808201518184015260208101905061062f565b50505050905090810190601f1680156106775780820380516001836020036101000a031916815260200191505b50995050505050505050505060405180910390f35b61069461191b565b005b6106e0600480360360808110156106ac57600080fd5b8101908080359060200190929190803590602001909291908035906020019092919080359060200190929190505050611a5e565b6040518082815260200191505060405180910390f35b34801561070257600080fd5b506107c66004803603604081101561071957600080fd5b810190808035906020019064010000000081111561073657600080fd5b82018360208201111561074857600080fd5b8035906020019184600183028401116401000000008311171561076a57600080fd5b91908080601f016020809104026020016040519081016040528093929190818152602001838380828437600081840152601f19601f82011690508083019250505050505050919291929080359060200190929190505050611e0e565b6040518082815260200191505060405180910390f35b3480156107e857600080fd5b50610815600480360360208110156107ff57600080fd5b8101908080359060200190929190505050611ef1565b604051808b73ffffffffffffffffffffffffffffffffffffffff1673ffffffffffffffffffffffffffffffffffffffff1681526020018a73ffffffffffffffffffffffffffffffffffffffff1673ffffffffffffffffffffffffffffffffffffffff1681526020018973ffffffffffffffffffffffffffffffffffffffff1673ffffffffffffffffffffffffffffffffffffffff1681526020018881526020018781526020018681526020018581526020018481526020018381526020018281526020019a505050505050505050505060405180910390f35b3480156108fa57600080fd5b50610903611fb2565b6040518082815260200191505060405180910390f35b34801561092557600080fd5b506109686004803603602081101561093c57600080fd5b81019080803573ffffffffffffffffffffffffffffffffffffffff169060200190929190505050611fb8565b6040518082815260200191505060405180910390f35b34801561098a57600080fd5b50610993611fd0565b6040518082815260200191505060405180910390f35b3480156109b557600080fd5b50610a6f600480360360208110156109cc57600080fd5b81019080803590602001906401000000008111156109e957600080fd5b8201836020820111156109fb57600080fd5b80359060200191846001830284011164010000000083111715610a1d57600080fd5b91908080601f016020809104026020016040519081016040528093929190818152602001838380828437600081840152601f19601f820116905080830192505050505050509192919290505050611fe0565b6040518082815260200191505060405180910390f35b348015610a9157600080fd5b50610a9a61200b565b6040518082815260200191505060405180910390f35b348015610abc57600080fd5b50610b0760048036036080811015610ad357600080fd5b8101908080359060200190929190803590602001909291908035906020019092919080359060200190929190505050612091565b005b348015610b1557600080fd5b50610b1e6123bc565b60405180898152602001806020018881526020018773ffffffffffffffffffffffffffffffffffffffff1673ffffffffffffffffffffffffffffffffffffffff168152602001868152602001858152602001848152602001838152602001828103825289818151815260200191508051906020019080838360005b83811015610bb4578082015181840152602081019050610b99565b50505050905090810190601f168015610be15780820380516001836020036101000a031916815260200191505b50995050505050505050505060405180910390f35b6000600160038054905003905090565b6000809054906101000a900473ffffffffffffffffffffffffffffffffffffffff1681565b600080600460003373ffffffffffffffffffffffffffffffffffffffff1673ffffffffffffffffffffffffffffffffffffffff1681526020019081526020016000205411905090565b60006002600460008060009054906101000a900473ffffffffffffffffffffffffffffffffffffffff1673ffffffffffffffffffffffffffffffffffffffff1673ffffffffffffffffffffffffffffffffffffffff1681526020019081526020016000205481548110610ce357fe5b906000526020600020906007020160050154905090565b60028181548110610d0757fe5b9060005260206000209060070201600091509050806000018054600181600116156101000203166002900480601f016020809104026020016040519081016040528092919081815260200182805460018160011615610100020316600290048015610db35780601f10610d8857610100808354040283529160200191610db3565b820191906000526020600020905b815481529060010190602001808311610d9657829003601f168201915b5050505050908060010154908060020160009054906101000a900473ffffffffffffffffffffffffffffffffffffffff16908060030154908060040154908060050154908060060154905087565b6000809054906101000a900473ffffffffffffffffffffffffffffffffffffffff1673ffffffffffffffffffffffffffffffffffffffff163373ffffffffffffffffffffffffffffffffffffffff1614610e5a57600080fd5b3373ffffffffffffffffffffffffffffffffffffffff16ff5b600080600080600080600080881180610e9157506003805490508811155b610e9a57600080fd5b60038881548110610ea757fe5b90600052602060002090600a02016009016000815480929190600101919050555060026004600060038b81548110610edb57fe5b90600052602060002090600a020160010160009054906101000a900473ffffffffffffffffffffffffffffffffffffffff1673ffffffffffffffffffffffffffffffffffffffff1673ffffffffffffffffffffffffffffffffffffffff1681526020019081526020016000205481548110610f5257fe5b90600052602060002090600702016005016000815480929190600101919050555060026004600060038b81548110610f8657fe5b90600052602060002090600a020160020160009054906101000a900473ffffffffffffffffffffffffffffffffffffffff1673ffffffffffffffffffffffffffffffffffffffff1673ffffffffffffffffffffffffffffffffffffffff1681526020019081526020016000205481548110610ffd57fe5b9060005260206000209060070201600501600081548092919060010191905055506002600460008060009054906101000a900473ffffffffffffffffffffffffffffffffffffffff1673ffffffffffffffffffffffffffffffffffffffff1673ffffffffffffffffffffffffffffffffffffffff168152602001908152602001600020548154811061108b57fe5b9060005260206000209060070201600501600081548092919060010191905055506110b4612637565b600389815481106110c157fe5b90600052602060002090600a0201604051806101400160405290816000820160009054906101000a900473ffffffffffffffffffffffffffffffffffffffff1673ffffffffffffffffffffffffffffffffffffffff1673ffffffffffffffffffffffffffffffffffffffff1681526020016001820160009054906101000a900473ffffffffffffffffffffffffffffffffffffffff1673ffffffffffffffffffffffffffffffffffffffff1673ffffffffffffffffffffffffffffffffffffffff1681526020016002820160009054906101000a900473ffffffffffffffffffffffffffffffffffffffff1673ffffffffffffffffffffffffffffffffffffffff1673ffffffffffffffffffffffffffffffffffffffff168152602001600382015481526020016004820154815260200160058201548152602001600682015481526020016007820154815260200160088201548152602001600982015481525050905088816060015182608001518360a001518460c001518560e00151866101000151975097509750975097509750975050919395979092949650565b60006002600460008773ffffffffffffffffffffffffffffffffffffffff1673ffffffffffffffffffffffffffffffffffffffff16815260200190815260200160002054815481106112ad57fe5b906000526020600020906007020160010154905060006002600460008773ffffffffffffffffffffffffffffffffffffffff1673ffffffffffffffffffffffffffffffffffffffff168152602001908152602001600020548154811061130f57fe5b906000526020600020906007020160010154905060006002600460003373ffffffffffffffffffffffffffffffffffffffff1673ffffffffffffffffffffffffffffffffffffffff168152602001908152602001600020548154811061137157fe5b906000526020600020906007020160010154905060036040518061014001604052808973ffffffffffffffffffffffffffffffffffffffff1681526020018873ffffffffffffffffffffffffffffffffffffffff1681526020013373ffffffffffffffffffffffffffffffffffffffff16815260200185815260200184815260200183815260200187815260200186815260200142815260200160008152509080600181540180825580915050906001820390600052602060002090600a02016000909192909190915060008201518160000160006101000a81548173ffffffffffffffffffffffffffffffffffffffff021916908373ffffffffffffffffffffffffffffffffffffffff16021790555060208201518160010160006101000a81548173ffffffffffffffffffffffffffffffffffffffff021916908373ffffffffffffffffffffffffffffffffffffffff16021790555060408201518160020160006101000a81548173ffffffffffffffffffffffffffffffffffffffff021916908373ffffffffffffffffffffffffffffffffffffffff160217905550606082015181600301556080820151816004015560a0820151816005015560c0820151816006015560e082015181600701556101008201518160080155610120820151816009015550505050505050505050565b6000806000905060006001905060006001905060006001905060006001905060006001905060008090505b611597610bf6565b81101561169c576000602060ff1611156115cf578b600382815481106115b957fe5b90600052602060002090600a0201600301541495505b6000602060ff161115611600578a600382815481106115ea57fe5b90600052602060002090600a0201600401541494505b60008a111561162e57896003828154811061161757fe5b90600052602060002090600a020160080154101592505b600089111561165c57886003828154811061164557fe5b90600052602060002090600a020160080154111591505b8580156116665750845b801561166f5750835b80156116785750825b80156116815750815b1561168f5786806001019750505b808060010191505061158f565b50859650505050505050949350505050565b60006116bb338484612442565b905092915050565b6000606060008060008060008060008911806116e457506002805490508911155b6116ed57600080fd5b60606040518060400160405280600481526020017f7573657200000000000000000000000000000000000000000000000000000000815250905061172f6126d5565b60028b8154811061173c57fe5b90600052602060002090600702016040518060e0016040529081600082018054600181600116156101000203166002900480601f0160208091040260200160405190810160405280929190818152602001828054600181600116156101000203166002900480156117ee5780601f106117c3576101008083540402835291602001916117ee565b820191906000526020600020905b8154815290600101906020018083116117d157829003601f168201915b50505050508152602001600182015481526020016002820160009054906101000a900473ffffffffffffffffffffffffffffffffffffffff1673ffffffffffffffffffffffffffffffffffffffff1673ffffffffffffffffffffffffffffffffffffffff16815260200160038201548152602001600482015481526020016005820154815260200160068201548152505090506000809054906101000a900473ffffffffffffffffffffffffffffffffffffffff1673ffffffffffffffffffffffffffffffffffffffff163373ffffffffffffffffffffffffffffffffffffffff1614156118de57806000015191505b8a8282602001518360400151846060015185608001518660a001518760c00151995099509950995099509950995099505050919395975091939597565b6000809054906101000a900473ffffffffffffffffffffffffffffffffffffffff1673ffffffffffffffffffffffffffffffffffffffff163373ffffffffffffffffffffffffffffffffffffffff161461197457600080fd5b61197c610c74565b471161198757600080fd5b60008090506000600190505b61199b611fd0565b811015611a5a57600281815481106119af57fe5b9060005260206000209060070201600501549150600281815481106119d057fe5b906000526020600020906007020160020160009054906101000a900473ffffffffffffffffffffffffffffffffffffffff1673ffffffffffffffffffffffffffffffffffffffff166001479050505060028181548110611a2c57fe5b9060005260206000209060070201600601600081548092919060010191905055508080600101915050611993565b5050565b6000346001600082825401925050819055506000809050600080905060006001905060006001905060006001905060006001905060006001905060008090505b611aa6610bf6565b811015611dfb5760038181548110611aba57fe5b90600052602060002090600a02016006015460038281548110611ad957fe5b90600052602060002090600a0201600701540296506000602060ff161115611b1f578c60038281548110611b0957fe5b90600052602060002090600a0201600301541495505b6000602060ff161115611b50578b60038281548110611b3a57fe5b90600052602060002090600a0201600401541494505b60008b1115611b7e578a60038281548110611b6757fe5b90600052602060002090600a020160080154101592505b60008a1115611bac578960038281548110611b9557fe5b90600052602060002090600a020160080154111591505b858015611bb65750845b8015611bbf5750835b8015611bc85750825b8015611bd15750815b15611dee5760038181548110611be357fe5b90600052602060002090600a02016009016000815480929190600101919050555060026004600060038481548110611c1757fe5b90600052602060002090600a020160010160009054906101000a900473ffffffffffffffffffffffffffffffffffffffff1673ffffffffffffffffffffffffffffffffffffffff1673ffffffffffffffffffffffffffffffffffffffff1681526020019081526020016000205481548110611c8e57fe5b90600052602060002090600702016005016000815480929190600101919050555060026004600060038481548110611cc257fe5b90600052602060002090600a020160020160009054906101000a900473ffffffffffffffffffffffffffffffffffffffff1673ffffffffffffffffffffffffffffffffffffffff1673ffffffffffffffffffffffffffffffffffffffff1681526020019081526020016000205481548110611d3957fe5b9060005260206000209060070201600501600081548092919060010191905055506002600460008060009054906101000a900473ffffffffffffffffffffffffffffffffffffffff1673ffffffffffffffffffffffffffffffffffffffff1673ffffffffffffffffffffffffffffffffffffffff1681526020019081526020016000205481548110611dc757fe5b90600052602060002090600702016005016000815480929190600101919050555086880197505b8080600101915050611a9e565b5086975050505050505050949350505050565b6000611e18610c2b565b611e2157600080fd5b6000600460003373ffffffffffffffffffffffffffffffffffffffff1673ffffffffffffffffffffffffffffffffffffffff168152602001908152602001600020549050600060028281548110611e7457fe5b9060005260206000209060070201905084816000019080519060200190611e9c92919061272b565b508381600101819055504281600401819055507f179dda4b314caed68129a8b8bbd77c7a4fb092c2d9fb3de452a4f8e4839dc876826040518082815260200191505060405180910390a1819250505092915050565b60038181548110611efe57fe5b90600052602060002090600a02016000915090508060000160009054906101000a900473ffffffffffffffffffffffffffffffffffffffff16908060010160009054906101000a900473ffffffffffffffffffffffffffffffffffffffff16908060020160009054906101000a900473ffffffffffffffffffffffffffffffffffffffff1690806003015490806004015490806005015490806006015490806007015490806008015490806009015490508a565b60015481565b60046020528060005260406000206000915090505481565b6000600160028054905003905090565b60006060829050600081511415611ffd576000801b915050612006565b60208301519150505b919050565b60006002600460008060009054906101000a900473ffffffffffffffffffffffffffffffffffffffff1673ffffffffffffffffffffffffffffffffffffffff1673ffffffffffffffffffffffffffffffffffffffff168152602001908152602001600020548154811061207a57fe5b906000526020600020906007020160060154905090565b612099611fd0565b8411156120a557600080fd5b6120ad611fd0565b8311156120b957600080fd5b6000600285815481106120c857fe5b90600052602060002090600702016001015490506000600285815481106120eb57fe5b906000526020600020906007020160010154905060006002600460003373ffffffffffffffffffffffffffffffffffffffff1673ffffffffffffffffffffffffffffffffffffffff168152602001908152602001600020548154811061214d57fe5b9060005260206000209060070201600101549050600360405180610140016040528060028a8154811061217c57fe5b906000526020600020906007020160020160009054906101000a900473ffffffffffffffffffffffffffffffffffffffff1673ffffffffffffffffffffffffffffffffffffffff168152602001600289815481106121d657fe5b906000526020600020906007020160020160009054906101000a900473ffffffffffffffffffffffffffffffffffffffff1673ffffffffffffffffffffffffffffffffffffffff1681526020013373ffffffffffffffffffffffffffffffffffffffff16815260200185815260200184815260200183815260200187815260200186815260200142815260200160008152509080600181540180825580915050906001820390600052602060002090600a02016000909192909190915060008201518160000160006101000a81548173ffffffffffffffffffffffffffffffffffffffff021916908373ffffffffffffffffffffffffffffffffffffffff16021790555060208201518160010160006101000a81548173ffffffffffffffffffffffffffffffffffffffff021916908373ffffffffffffffffffffffffffffffffffffffff16021790555060408201518160020160006101000a81548173ffffffffffffffffffffffffffffffffffffffff021916908373ffffffffffffffffffffffffffffffffffffffff160217905550606082015181600301556080820151816004015560a0820151816005015560c0820151816006015560e082015181600701556101008201518160080155610120820151816009015550505050505050505050565b600060606000806000806000806123d1610c2b565b6123da57600080fd5b6000600460003373ffffffffffffffffffffffffffffffffffffffff1673ffffffffffffffffffffffffffffffffffffffff168152602001908152602001600020549050612427816116c3565b98509850985098509850985098509850509091929394959697565b600080600460008673ffffffffffffffffffffffffffffffffffffffff1673ffffffffffffffffffffffffffffffffffffffff1681526020019081526020016000205490506000811461249457600080fd5b600280549050600460008773ffffffffffffffffffffffffffffffffffffffff1673ffffffffffffffffffffffffffffffffffffffff168152602001908152602001600020819055506000600280548091906001016124f391906127ab565b90506040518060e001604052808681526020018581526020018773ffffffffffffffffffffffffffffffffffffffff1681526020014281526020014281526020016000815260200160008152506002828154811061254d57fe5b906000526020600020906007020160008201518160000190805190602001906125779291906127dd565b506020820151816001015560408201518160020160006101000a81548173ffffffffffffffffffffffffffffffffffffffff021916908373ffffffffffffffffffffffffffffffffffffffff160217905550606082015181600301556080820151816004015560a0820151816005015560c082015181600601559050507f2456c02735fb44894660d2af194ca5261385d8ee03675e1d75b0da1300a764cd816040518082815260200191505060405180910390a180925050509392505050565b604051806101400160405280600073ffffffffffffffffffffffffffffffffffffffff168152602001600073ffffffffffffffffffffffffffffffffffffffff168152602001600073ffffffffffffffffffffffffffffffffffffffff168152602001600080191681526020016000801916815260200160008019168152602001600081526020016000815260200160008152602001600081525090565b6040518060e001604052806060815260200160008019168152602001600073ffffffffffffffffffffffffffffffffffffffff168152602001600081526020016000815260200160008152602001600081525090565b828054600181600116156101000203166002900490600052602060002090601f016020900481019282601f1061276c57805160ff191683800117855561279a565b8280016001018555821561279a579182015b8281111561279957825182559160200191906001019061277e565b5b5090506127a7919061285d565b5090565b8154818355818111156127d8576007028160070283600052602060002091820191016127d79190612882565b5b505050565b828054600181600116156101000203166002900490600052602060002090601f016020900481019282601f1061281e57805160ff191683800117855561284c565b8280016001018555821561284c579182015b8281111561284b578251825591602001919060010190612830565b5b509050612859919061285d565b5090565b61287f91905b8082111561287b576000816000905550600101612863565b5090565b90565b6128fd91905b808211156128f957600080820160006128a19190612900565b60018201600090556002820160006101000a81549073ffffffffffffffffffffffffffffffffffffffff0219169055600382016000905560048201600090556005820160009055600682016000905550600701612888565b5090565b90565b50805460018160011615610100020316600290046000825580601f106129265750612945565b601f016020900490600052602060002090810190612944919061285d565b5b5056fea265627a7a723158207eaa497b464ae2e88d5ae20f39d8cb77678af70c9461c8b5c2dc81e3a7a6502d64736f6c63430005100032",
  "source": "pragma solidity >=0.4.22 <0.7.0;\r\n\r\ncontract MarketPlace {\r\n\r\n    address public Contract_owner;\r\n    // data structure that stores a user\r\n    \r\n    uint public balance = 0;\r\n    \r\n    /// destroy the contract and reclaim the leftover funds.\r\n    function kill() public {\r\n        require(msg.sender == Contract_owner);\r\n        selfdestruct(msg.sender);\r\n    }\r\n\r\n    struct User {\r\n        string name;\r\n        bytes32 status;\r\n        address walletAddress;\r\n        uint createdAt;\r\n        uint updatedAt;\r\n        uint consulted;\r\n        uint paid; \r\n    }\r\n\r\n    struct Order{\r\n\r\n        address product;\r\n        address costumer;\r\n        address supplier;\r\n        \r\n        bytes32 product_name;\r\n        bytes32 costumer_category;\r\n        bytes32 supplier_category;\r\n        \r\n        uint amount;\r\n        uint value;\r\n        uint timestamp;\r\n         \r\n        uint consulted;\r\n    }\r\n\r\n    // Array of User that holds the list of users and their details\r\n    User[] public users;\r\n\r\n    // Array of User that holds the list of users and their details\r\n    Order[] public orders;\r\n\r\n    // it maps the user's wallet address with the user ID\r\n    mapping (address => uint) public usersIds;\r\n\r\n    // event fired when an user is registered\r\n    event newUserRegistered(uint id);\r\n\r\n    // event fired when the user updates his status or name\r\n    event userUpdateEvent(uint id);\r\n\r\n    // Modifier: check if the caller of the smart contract is registered\r\n    modifier checkSenderIsRegistered {\r\n        require(isRegistered());\r\n        _;\r\n    }\r\n    \r\n    function stringToBytes32(string memory source) public pure returns (bytes32 result) {\r\n        bytes memory tempEmptyStringTest = bytes(source);\r\n        if (tempEmptyStringTest.length == 0) {\r\n            return 0x0;\r\n        }\r\n    \r\n        assembly {\r\n            result := mload(add(source, 32))\r\n        }\r\n    }\r\n\r\n    constructor() public\r\n    {\r\n        Contract_owner = msg.sender;\r\n        addUser(address(0x0), \"dummy_user\", \"dummy_user\");\r\n        addUser(msg.sender, \"Contract_owner\", \"Contract_owner\");\r\n        \r\n        orders.push( Order(address(0x0),address(0x0),address(0x0),\"dummy_order\",\"dummy_order\", \"dummy_order\", 1, 2, 3, 0) );\r\n    }\r\n\r\n    function registerUser(string memory _userName, bytes32 _status) public\r\n    returns(uint)\r\n    {\r\n        return addUser(msg.sender, _userName, _status);\r\n    }\r\n\r\n    function addUser(address _wAddr, string memory  _userName, bytes32 _status) private\r\n    returns(uint){\r\n         // checking if the user is already registered\r\n        uint userId = usersIds[_wAddr];\r\n        require (userId == 0);\r\n\r\n        // associating the user wallet address with the new ID\r\n        usersIds[_wAddr] = users.length;\r\n        uint newUserId = users.length++;\r\n\r\n        // storing the new user details\r\n        users[newUserId] = User({\r\n            name: _userName,\r\n            status: _status,\r\n            walletAddress: _wAddr,\r\n            createdAt: now,\r\n            updatedAt: now,\r\n            consulted: 0,\r\n            paid: 0\r\n        });\r\n\r\n        // emitting the event that a new user has been registered\r\n        emit newUserRegistered(newUserId);\r\n\r\n        return newUserId;\r\n    }\r\n\r\n    /**\r\n     * Update the user profile of the caller of this method.\r\n     * Note: the user can modify only his own profile, because of checkSenderIsRegistered modifier.\r\n     */\r\n    function updateUser( string memory _newUserName, \r\n                         bytes32 _newStatus) \r\n        checkSenderIsRegistered public\r\n        returns(uint)\r\n        {\r\n            // An user can modify only his own profile.\r\n            uint userId = usersIds[msg.sender];\r\n\r\n            User storage user = users[userId];\r\n\r\n            user.name = _newUserName;\r\n            user.status = _newStatus;\r\n            user.updatedAt = now;\r\n\r\n            emit userUpdateEvent(userId);\r\n\r\n            return userId;\r\n    }\r\n\r\n    function getUserById(uint _id) public view\r\n    returns(\r\n        uint,\r\n        string memory,\r\n        bytes32,\r\n        address,\r\n        uint,\r\n        uint,\r\n        uint,\r\n        uint\r\n    ) {\r\n        // checking if the ID is valid\r\n        require( (_id > 0) || (_id <= users.length) );\r\n        string memory name = \"user\";\r\n        User memory i = users[_id];\r\n        if(msg.sender == Contract_owner)\r\n            name = i.name;\r\n        return (\r\n            _id,\r\n            name,\r\n            i.status,\r\n            i.walletAddress,\r\n            i.createdAt,\r\n            i.updatedAt,\r\n            i.consulted,\r\n            i.paid\r\n        );\r\n    }\r\n\r\n    function getOrderById(uint _id) public payable\r\n    returns(\r\n        uint,\r\n        bytes32,\r\n        bytes32,\r\n        bytes32,\r\n        uint,\r\n        uint,\r\n        uint\r\n    ) {\r\n        // checking if the ID is valid\r\n        require( (_id > 0) || (_id <= orders.length) );\r\n        orders[_id].consulted++;\r\n        users[ usersIds[ orders[_id].costumer ] ].consulted++;\r\n        users[ usersIds[ orders[_id].supplier ] ].consulted++;\r\n        users[ usersIds[ Contract_owner    ] ].consulted++;\r\n        Order memory o = orders[_id];\r\n        return (\r\n            _id,\r\n            o.product_name,\r\n            o.costumer_category,\r\n            o.supplier_category,\r\n            o.amount,\r\n            o.value,\r\n            o.timestamp\r\n        );\r\n    }\r\n\r\n    /**\r\n     * Return the profile information of the caller.\r\n     */\r\n    function getOwnProfile() checkSenderIsRegistered public view\r\n    returns(\r\n        uint,\r\n        string memory,\r\n        bytes32,\r\n        address,\r\n        uint,\r\n        uint,\r\n        uint,\r\n        uint\r\n    ) {\r\n        uint id = usersIds[msg.sender];\r\n\r\n        return getUserById(id);\r\n    }\r\n\r\n    /**\r\n     * Check if the user that is calling the smart contract is registered.\r\n     */\r\n    function isRegistered() public view returns (bool)\r\n    {\r\n        return (usersIds[msg.sender] > 0);\r\n    }\r\n\r\n    function totalUsers() public view returns (uint)\r\n    {\r\n        return users.length - 1;\r\n    }\r\n\r\n    function totalOrders() public view returns (uint)\r\n    {\r\n        return orders.length - 1;\r\n    }\r\n    \r\n    function totalConsulted() public view returns (uint)\r\n    {\r\n        return users[ usersIds[ Contract_owner ] ].consulted;\r\n    }\r\n    \r\n    function totalPaid() public view returns (uint)\r\n    {\r\n        return users[ usersIds[ Contract_owner ] ].paid;\r\n    }\r\n\r\n    function placeOrderWallet(  address w_product, \r\n                                address w_costumer, \r\n                                uint amount, \r\n                                uint value) \r\n        public {\r\n            bytes32 product_category = users[ usersIds[w_product] ].status;\r\n            bytes32 costumer_category = users[ usersIds[w_costumer] ].status;\r\n            bytes32 supplier_category = users[ usersIds [msg.sender] ].status;\r\n            orders.push( \r\n                            Order(  w_product, \r\n                                    w_costumer, \r\n                                    msg.sender, \r\n                                    product_category, \r\n                                    costumer_category, \r\n                                    supplier_category, \r\n                                    amount,\r\n                                    value, \r\n                                    now, \r\n                                    0) \r\n                        );\r\n\r\n    }\r\n    function placeOrderID(      uint id_product, \r\n                                uint id_costumer, \r\n                                uint amount, \r\n                                uint value) \r\n        public {\r\n            require(id_product <= totalUsers());\r\n            require(id_costumer <= totalUsers());\r\n            bytes32 product_category = users[ id_product ].status;\r\n            bytes32 costumer_category = users[ id_costumer ].status;\r\n            bytes32 supplier_category = users[ usersIds[msg.sender] ].status;\r\n            orders.push( \r\n                            Order(  users[ id_product ].walletAddress, \r\n                                    users[ id_costumer ].walletAddress, \r\n                                    msg.sender, \r\n                                    product_category, \r\n                                    costumer_category, \r\n                                    supplier_category, \r\n                                    amount,\r\n                                    value, \r\n                                    now, \r\n                                    0) \r\n                        );\r\n\r\n    }\r\n    function reduceOrdersCheck(  bytes32 _product_name, \r\n                            bytes32 _costumer_category, \r\n                            uint _begin, \r\n                            uint _end ) \r\n\r\n        public view returns (uint)\r\n        {\r\n            \r\n            uint counter = 0;\r\n            bool flag1 = true; bool flag2 = true; bool flag3 = true;\r\n            bool flag4 = true; bool flag5 = true;\r\n            \r\n            for (uint i = 0; i < totalOrders(); i++) {\r\n                \r\n                if(_product_name.length > 0)\r\n                    flag1 = (orders[i].product_name == _product_name);\r\n                if(_costumer_category.length > 0)\r\n                    flag2 = (orders[i].costumer_category == _costumer_category);\r\n                if(_begin > 0)\r\n                    flag4 = (orders[i].timestamp >= _begin);        \r\n                if(_end > 0)\r\n                    flag5 = (orders[i].timestamp <= _end);\r\n                if( flag1 && flag2 && flag3 && flag4 && flag5 ){\r\n                    \r\n                    counter++;\r\n                }\r\n                \r\n            }\r\n        return counter;\r\n    }\r\n\r\n    function reduceOrders(  bytes32 _product_name, \r\n                            bytes32 _costumer_category, \r\n                            uint _begin, \r\n                            uint _end ) \r\n\r\n        payable public returns (int)\r\n        {\r\n\r\n            \r\n            //Receive(msg.value);\r\n            balance += msg.value;\r\n            uint amount = 0;\r\n            uint temp_amount = 0;\r\n            bool flag1 = true; bool flag2 = true; bool flag3 = true;\r\n            bool flag4 = true; bool flag5 = true;\r\n            \r\n            for (uint i = 0; i < totalOrders(); i++) {\r\n                \r\n                temp_amount = orders[i].value * orders[i].amount;\r\n                if(_product_name.length > 0)\r\n                    flag1 = (orders[i].product_name == _product_name);\r\n                if(_costumer_category.length > 0)\r\n                    flag2 = (orders[i].costumer_category == _costumer_category);\r\n                if(_begin > 0)\r\n                    flag4 = (orders[i].timestamp >= _begin);        \r\n                if(_end > 0)\r\n                    flag5 = (orders[i].timestamp <= _end);\r\n                if( flag1 && flag2 && flag3 && flag4 && flag5 ){\r\n                    \r\n                    orders[i].consulted++;\r\n                    users[ usersIds[ orders[i].costumer ] ].consulted++;\r\n                    users[ usersIds[ orders[i].supplier ] ].consulted++;\r\n                    users[ usersIds[ Contract_owner    ] ].consulted++;\r\n                    amount += temp_amount;\r\n                }\r\n                \r\n            }\r\n            \r\n            // // 109206 gas\r\n            //     orders[0].consulted++;\r\n            //     users[0].consulted++;\r\n            //     users[0].paid++;\r\n            //     users[1].consulted++;\r\n            //     users[1].paid++;\r\n            \r\n        return int(amount);\r\n    }\r\n    \r\n    function payDay() public payable  {\r\n            \r\n        require(msg.sender == Contract_owner);\r\n\r\n        require( address(this).balance > totalConsulted() );\r\n        \r\n        //uint payment = uint(address(this).balance / totalConsulted());\r\n        uint local_consulted = 0;\r\n        \r\n        for (uint i = 1; i < totalUsers(); i++) {\r\n                local_consulted = users[i].consulted;\r\n                users[i].walletAddress.call.value(1).gas(address(this).balance);\r\n                users[i].paid++;\r\n        }\r\n    }\r\n}\r\n",
  "sourcePath": "C:/Github/vuejs-restaurant-orders/contracts/MarketPlace.sol",
  "compiler": {
    "name": "solc",
    "version": "0.5.16+commit.9c3226ce.Emscripten.clang"
  },
  "schemaVersion": "3.2.4",
  "updatedAt": "2020-09-23T13:08:41.461Z",
  "networkType": "ethereum",
  "devdoc": {
    "methods": {}
  },
  "userdoc": {
    "methods": {
      "getOwnProfile()": {
        "notice": "Return the profile information of the caller."
      },
      "isRegistered()": {
        "notice": "Check if the user that is calling the smart contract is registered."
      },
      "kill()": {
        "notice": "destroy the contract and reclaim the leftover funds."
      },
      "updateUser(string,bytes32)": {
        "notice": "Update the user profile of the caller of this method. Note: the user can modify only his own profile, because of checkSenderIsRegistered modifier."
      }
    }
  }
}