{
  "contractName": "Supplier",
  "abi": [
    {
      "anonymous": false,
      "inputs": [
        {
          "indexed": false,
          "internalType": "uint256",
          "name": "idItem",
          "type": "uint256"
        }
      ],
      "name": "ItemAdded",
      "type": "event"
    },
    {
      "anonymous": false,
      "inputs": [
        {
          "indexed": false,
          "internalType": "uint256",
          "name": "idOfCustomer",
          "type": "uint256"
        },
        {
          "indexed": false,
          "internalType": "uint256",
          "name": "idOrder",
          "type": "uint256"
        },
        {
          "indexed": false,
          "internalType": "bool",
          "name": "status",
          "type": "bool"
        }
      ],
      "name": "ProcessAnOrder",
      "type": "event"
    },
    {
      "constant": false,
      "inputs": [
        {
          "internalType": "bytes32",
          "name": "itemName",
          "type": "bytes32"
        },
        {
          "internalType": "uint256",
          "name": "price",
          "type": "uint256"
        }
      ],
      "name": "addItem",
      "outputs": [],
      "payable": false,
      "stateMutability": "nonpayable",
      "type": "function"
    },
    {
      "constant": false,
      "inputs": [
        {
          "internalType": "uint256",
          "name": "idOrder",
          "type": "uint256"
        },
        {
          "internalType": "uint256",
          "name": "idCustomer",
          "type": "uint256"
        }
      ],
      "name": "processOrder",
      "outputs": [],
      "payable": false,
      "stateMutability": "nonpayable",
      "type": "function"
    },
    {
      "constant": true,
      "inputs": [
        {
          "internalType": "uint256",
          "name": "idItem",
          "type": "uint256"
        }
      ],
      "name": "getItem",
      "outputs": [
        {
          "internalType": "bytes32",
          "name": "",
          "type": "bytes32"
        },
        {
          "internalType": "uint256",
          "name": "",
          "type": "uint256"
        }
      ],
      "payable": false,
      "stateMutability": "view",
      "type": "function"
    },
    {
      "constant": true,
      "inputs": [
        {
          "internalType": "uint256",
          "name": "idOrder",
          "type": "uint256"
        }
      ],
      "name": "getStatus",
      "outputs": [
        {
          "internalType": "bool",
          "name": "",
          "type": "bool"
        }
      ],
      "payable": false,
      "stateMutability": "view",
      "type": "function"
    },
    {
      "constant": true,
      "inputs": [],
      "name": "getTotalNumberOfAvailableItems",
      "outputs": [
        {
          "internalType": "uint256",
          "name": "",
          "type": "uint256"
        }
      ],
      "payable": false,
      "stateMutability": "view",
      "type": "function"
    },
    {
      "constant": true,
      "inputs": [],
      "name": "getTotalNumberOfOrdersProcessed",
      "outputs": [
        {
          "internalType": "uint256",
          "name": "",
          "type": "uint256"
        }
      ],
      "payable": false,
      "stateMutability": "view",
      "type": "function"
    }
  ],
  "bytecode": "0x608060405234801561001057600080fd5b506103ba806100206000396000f3fe608060405234801561001057600080fd5b50600436106100625760003560e01c80633129e773146100675780633946abfd146100b05780635c622a0e146100ce578063804544c414610114578063941e53a71461014c578063e60451f41461016a575b600080fd5b6100936004803603602081101561007d57600080fd5b81019080803590602001909291905050506101a2565b604051808381526020018281526020019250505060405180910390f35b6100b86101dc565b6040518082815260200191505060405180910390f35b6100fa600480360360208110156100e457600080fd5b81019080803590602001909291905050506101e6565b604051808215151515815260200191505060405180910390f35b61014a6004803603604081101561012a57600080fd5b810190808035906020019092919080359060200190929190505050610213565b005b6101546102dd565b6040518082815260200191505060405180910390f35b6101a06004803603604081101561018057600080fd5b8101908080359060200190929190803590602001909291905050506102e6565b005b6000806002600084815260200190815260200160002060010154600260008581526020019081526020016000206002015491509150915091565b6000600154905090565b60006003600083815260200190815260200160002060020160009054906101000a900460ff169050919050565b60405180606001604052808281526020018381526020016001151581525060036000848152602001908152602001600020600082015181600001556020820151816001015560408201518160020160006101000a81548160ff0219169083151502179055509050506001600081548092919060010191905055507f13c5c248f81aca9d8fa3643449bd2debad3b6ec68931a70443181d3e60352ee7818360016040518084815260200183815260200182151515158152602001935050505060405180910390a15050565b60008054905090565b6000806000815480929190600101919050559050604051806060016040528082815260200184815260200183815250600260008381526020019081526020016000206000820151816000015560208201518160010155604082015181600201559050507f186760a37e06b130959978c68b5c592841caf4f64de1dc960b2c54cf454ca9dd816040518082815260200191505060405180910390a150505056fea265627a7a7231582088e88d3201e900eebb9da09dfbaf21366c105d5bcccf3e9cc9944cfc7e97800f64736f6c63430005100032",
  "source": "pragma solidity ^0.5.16;\r\n// We have to specify what version of compiler this code will compile with\r\n\r\ncontract Supplier {\r\n\r\n  /* Events */\r\n  event ItemAdded(uint idItem);\r\n  event ProcessAnOrder(uint idOfCustomer, uint idOrder, bool status);\r\n\r\n  struct Item {\r\n    uint idItem;\r\n    bytes32 itemName;\r\n    uint price;\r\n  }\r\n\r\n  struct Orderlog {\r\n    uint idOfCustomer;\r\n    uint idOrder; \r\n    bool status;\r\n  }\r\n\r\n  // STATE Variables.\r\n  uint numberOfItemsAvailableForSale;\r\n  uint numberOfOrdersProcessed;\r\n\r\n  // Mappings \r\n  mapping (uint => Item) items;\r\n  mapping (uint => Orderlog) orderLogs;\r\n\r\n\r\n  /* TRANSACTIONS */\r\n  function addItem(bytes32 itemName, uint price) public {\r\n    uint idItem = numberOfItemsAvailableForSale++;\r\n    items[idItem] = Item(idItem, itemName, price);\r\n    emit ItemAdded(idItem);\r\n  }\r\n\r\n  function processOrder(uint idOrder, uint idCustomer) public {\r\n    orderLogs[idOrder] = Orderlog(idCustomer, idOrder, true);\r\n    numberOfOrdersProcessed ++;\r\n    emit ProcessAnOrder(idCustomer, idOrder, true);\r\n  }\r\n\r\n  /* GETTERS */\r\n  function getItem(uint idItem) view public returns (bytes32, uint){\r\n    /*returns itemName and its price*/\r\n    return (items[idItem].itemName, items[idItem].price);\r\n  }\r\n\r\n  function getStatus(uint idOrder) view public returns (bool) {\r\n    /*returns completion status*/\r\n    return (orderLogs[idOrder].status);\r\n  }\r\n\r\n  function getTotalNumberOfAvailableItems() view public returns (uint) {\r\n    return numberOfItemsAvailableForSale;\r\n  }\r\n\r\n  function getTotalNumberOfOrdersProcessed() view public returns (uint){\r\n    return numberOfOrdersProcessed;\r\n  }\r\n\r\n}",
  "sourcePath": "C:/Users/dldou/OneDrive/Documentos/GitHub/Decentralized_eCom/backend/contracts/Supplier.sol",
  "compiler": {
    "name": "solc",
    "version": "0.5.16+commit.9c3226ce.Emscripten.clang"
  },
  "schemaVersion": "3.2.4",
  "updatedAt": "2020-08-31T01:24:27.320Z",
  "networkType": "ethereum",
  "devdoc": {
    "methods": {}
  },
  "userdoc": {
    "methods": {}
  }
}